{
	"contracts/Election.sol": {
		"Election": {
			"abi": [
				{
					"inputs": [
						{
							"internalType": "address",
							"name": "_voterAddress",
							"type": "address"
						}
					],
					"name": "AuthorizeVoter",
					"outputs": [],
					"stateMutability": "nonpayable",
					"type": "function"
				},
				{
					"inputs": [
						{
							"internalType": "string",
							"name": "_candidateName",
							"type": "string"
						}
					],
					"name": "addCandidate",
					"outputs": [],
					"stateMutability": "nonpayable",
					"type": "function"
				},
				{
					"inputs": [
						{
							"internalType": "uint256",
							"name": "",
							"type": "uint256"
						}
					],
					"name": "candidates",
					"outputs": [
						{
							"internalType": "string",
							"name": "name",
							"type": "string"
						},
						{
							"internalType": "uint256",
							"name": "numOfVotes",
							"type": "uint256"
						}
					],
					"stateMutability": "view",
					"type": "function"
				},
				{
					"inputs": [],
					"name": "electionName",
					"outputs": [
						{
							"internalType": "string",
							"name": "",
							"type": "string"
						}
					],
					"stateMutability": "view",
					"type": "function"
				},
				{
					"inputs": [],
					"name": "getNumOfCandidates",
					"outputs": [
						{
							"internalType": "uint256",
							"name": "",
							"type": "uint256"
						}
					],
					"stateMutability": "view",
					"type": "function"
				},
				{
					"inputs": [],
					"name": "smartContractOwner",
					"outputs": [
						{
							"internalType": "address",
							"name": "",
							"type": "address"
						}
					],
					"stateMutability": "view",
					"type": "function"
				},
				{
					"inputs": [
						{
							"internalType": "string",
							"name": "_electionName",
							"type": "string"
						}
					],
					"name": "startElection",
					"outputs": [],
					"stateMutability": "nonpayable",
					"type": "function"
				},
				{
					"inputs": [],
					"name": "totalVotes",
					"outputs": [
						{
							"internalType": "uint256",
							"name": "",
							"type": "uint256"
						}
					],
					"stateMutability": "view",
					"type": "function"
				},
				{
					"inputs": [
						{
							"internalType": "uint256",
							"name": "_candidateIndex",
							"type": "uint256"
						}
					],
					"name": "vote",
					"outputs": [],
					"stateMutability": "nonpayable",
					"type": "function"
				},
				{
					"inputs": [
						{
							"internalType": "address",
							"name": "",
							"type": "address"
						}
					],
					"name": "voters",
					"outputs": [
						{
							"internalType": "string",
							"name": "name",
							"type": "string"
						},
						{
							"internalType": "bool",
							"name": "isAuthorized",
							"type": "bool"
						},
						{
							"internalType": "bool",
							"name": "hasVoted",
							"type": "bool"
						},
						{
							"internalType": "uint256",
							"name": "c_id",
							"type": "uint256"
						}
					],
					"stateMutability": "view",
					"type": "function"
				}
			],
			"devdoc": {
				"kind": "dev",
				"methods": {},
				"version": 1
			},
			"evm": {
				"assembly": "    /* \"contracts/Election.sol\":68:1971  contract Election{... */\n  mstore(0x40, 0x80)\n  callvalue\n  dup1\n  iszero\n  tag_1\n  jumpi\n  0x00\n  dup1\n  revert\ntag_1:\n  pop\n  dataSize(sub_0)\n  dup1\n  dataOffset(sub_0)\n  0x00\n  codecopy\n  0x00\n  return\nstop\n\nsub_0: assembly {\n        /* \"contracts/Election.sol\":68:1971  contract Election{... */\n      mstore(0x40, 0x80)\n      callvalue\n      dup1\n      iszero\n      tag_1\n      jumpi\n      0x00\n      dup1\n      revert\n    tag_1:\n      pop\n      jumpi(tag_2, lt(calldatasize, 0x04))\n      shr(0xe0, calldataload(0x00))\n      dup1\n      0x85e8e7a7\n      gt\n      tag_13\n      jumpi\n      dup1\n      0x85e8e7a7\n      eq\n      tag_8\n      jumpi\n      dup1\n      0x96ffa499\n      eq\n      tag_9\n      jumpi\n      dup1\n      0xa3ec138d\n      eq\n      tag_10\n      jumpi\n      dup1\n      0xe8685ba1\n      eq\n      tag_11\n      jumpi\n      dup1\n      0xf544bed8\n      eq\n      tag_12\n      jumpi\n      jump(tag_2)\n    tag_13:\n      dup1\n      0x0121b93f\n      eq\n      tag_3\n      jumpi\n      dup1\n      0x0d15fd77\n      eq\n      tag_4\n      jumpi\n      dup1\n      0x3477ee2e\n      eq\n      tag_5\n      jumpi\n      dup1\n      0x462e91ec\n      eq\n      tag_6\n      jumpi\n      dup1\n      0x4b2c5111\n      eq\n      tag_7\n      jumpi\n    tag_2:\n      0x00\n      dup1\n      revert\n        /* \"contracts/Election.sol\":1644:1968  function vote(uint _candidateIndex) public{... */\n    tag_3:\n      tag_14\n      0x04\n      dup1\n      calldatasize\n      sub\n      dup2\n      add\n      swap1\n      tag_15\n      swap2\n      swap1\n      tag_16\n      jump\t// in\n    tag_15:\n      tag_17\n      jump\t// in\n    tag_14:\n      stop\n        /* \"contracts/Election.sol\":682:704  uint public totalVotes */\n    tag_4:\n      tag_18\n      tag_19\n      jump\t// in\n    tag_18:\n      mload(0x40)\n      tag_20\n      swap2\n      swap1\n      tag_21\n      jump\t// in\n    tag_20:\n      mload(0x40)\n      dup1\n      swap2\n      sub\n      swap1\n      return\n        /* \"contracts/Election.sol\":835:864  Candidate[] public candidates */\n    tag_5:\n      tag_22\n      0x04\n      dup1\n      calldatasize\n      sub\n      dup2\n      add\n      swap1\n      tag_23\n      swap2\n      swap1\n      tag_16\n      jump\t// in\n    tag_23:\n      tag_24\n      jump\t// in\n    tag_22:\n      mload(0x40)\n      tag_25\n      swap3\n      swap2\n      swap1\n      tag_26\n      jump\t// in\n    tag_25:\n      mload(0x40)\n      dup1\n      swap2\n      sub\n      swap1\n      return\n        /* \"contracts/Election.sol\":1153:1311  function addCandidate(string memory _candidateName)ownerOnly public { //owner only modifer used... */\n    tag_6:\n      tag_27\n      0x04\n      dup1\n      calldatasize\n      sub\n      dup2\n      add\n      swap1\n      tag_28\n      swap2\n      swap1\n      tag_29\n      jump\t// in\n    tag_28:\n      tag_30\n      jump\t// in\n    tag_27:\n      stop\n        /* \"contracts/Election.sol\":1355:1480  function AuthorizeVoter(address _voterAddress) ownerOnly public {... */\n    tag_7:\n      tag_31\n      0x04\n      dup1\n      calldatasize\n      sub\n      dup2\n      add\n      swap1\n      tag_32\n      swap2\n      swap1\n      tag_33\n      jump\t// in\n    tag_32:\n      tag_34\n      jump\t// in\n    tag_31:\n      stop\n        /* \"contracts/Election.sol\":648:674  string public electionName */\n    tag_8:\n      tag_35\n      tag_36\n      jump\t// in\n    tag_35:\n      mload(0x40)\n      tag_37\n      swap2\n      swap1\n      tag_38\n      jump\t// in\n    tag_37:\n      mload(0x40)\n      dup1\n      swap2\n      sub\n      swap1\n      return\n        /* \"contracts/Election.sol\":413:446  address public smartContractOwner */\n    tag_9:\n      tag_39\n      tag_40\n      jump\t// in\n    tag_39:\n      mload(0x40)\n      tag_41\n      swap2\n      swap1\n      tag_42\n      jump\t// in\n    tag_41:\n      mload(0x40)\n      dup1\n      swap2\n      sub\n      swap1\n      return\n        /* \"contracts/Election.sol\":760:799  mapping(address => Voter) public voters */\n    tag_10:\n      tag_43\n      0x04\n      dup1\n      calldatasize\n      sub\n      dup2\n      add\n      swap1\n      tag_44\n      swap2\n      swap1\n      tag_33\n      jump\t// in\n    tag_44:\n      tag_45\n      jump\t// in\n    tag_43:\n      mload(0x40)\n      tag_46\n      swap5\n      swap4\n      swap3\n      swap2\n      swap1\n      tag_47\n      jump\t// in\n    tag_46:\n      mload(0x40)\n      dup1\n      swap2\n      sub\n      swap1\n      return\n        /* \"contracts/Election.sol\":1524:1622  function getNumOfCandidates() public view returns(uint){... */\n    tag_11:\n      tag_48\n      tag_49\n      jump\t// in\n    tag_48:\n      mload(0x40)\n      tag_50\n      swap2\n      swap1\n      tag_21\n      jump\t// in\n    tag_50:\n      mload(0x40)\n      dup1\n      swap2\n      sub\n      swap1\n      return\n        /* \"contracts/Election.sol\":901:1110  function startElection(string memory _electionName) public {... */\n    tag_12:\n      tag_51\n      0x04\n      dup1\n      calldatasize\n      sub\n      dup2\n      add\n      swap1\n      tag_52\n      swap2\n      swap1\n      tag_29\n      jump\t// in\n    tag_52:\n      tag_53\n      jump\t// in\n    tag_51:\n      stop\n        /* \"contracts/Election.sol\":1644:1968  function vote(uint _candidateIndex) public{... */\n    tag_17:\n        /* \"contracts/Election.sol\":1706:1712  voters */\n      0x03\n        /* \"contracts/Election.sol\":1706:1724  voters[msg.sender] */\n      0x00\n        /* \"contracts/Election.sol\":1713:1723  msg.sender */\n      caller\n        /* \"contracts/Election.sol\":1706:1724  voters[msg.sender] */\n      0xffffffffffffffffffffffffffffffffffffffff\n      and\n      0xffffffffffffffffffffffffffffffffffffffff\n      and\n      dup2\n      mstore\n      0x20\n      add\n      swap1\n      dup2\n      mstore\n      0x20\n      add\n      0x00\n      keccak256\n        /* \"contracts/Election.sol\":1706:1733  voters[msg.sender].hasVoted */\n      0x01\n      add\n      0x01\n      swap1\n      sload\n      swap1\n      0x0100\n      exp\n      swap1\n      div\n      0xff\n      and\n        /* \"contracts/Election.sol\":1705:1733  !voters[msg.sender].hasVoted */\n      iszero\n        /* \"contracts/Election.sol\":1697:1734  require(!voters[msg.sender].hasVoted) */\n      tag_55\n      jumpi\n      0x00\n      dup1\n      revert\n    tag_55:\n        /* \"contracts/Election.sol\":1753:1759  voters */\n      0x03\n        /* \"contracts/Election.sol\":1753:1771  voters[msg.sender] */\n      0x00\n        /* \"contracts/Election.sol\":1760:1770  msg.sender */\n      caller\n        /* \"contracts/Election.sol\":1753:1771  voters[msg.sender] */\n      0xffffffffffffffffffffffffffffffffffffffff\n      and\n      0xffffffffffffffffffffffffffffffffffffffff\n      and\n      dup2\n      mstore\n      0x20\n      add\n      swap1\n      dup2\n      mstore\n      0x20\n      add\n      0x00\n      keccak256\n        /* \"contracts/Election.sol\":1753:1784  voters[msg.sender].isAuthorized */\n      0x01\n      add\n      0x00\n      swap1\n      sload\n      swap1\n      0x0100\n      exp\n      swap1\n      div\n      0xff\n      and\n        /* \"contracts/Election.sol\":1745:1785  require(voters[msg.sender].isAuthorized) */\n      tag_56\n      jumpi\n      0x00\n      dup1\n      revert\n    tag_56:\n        /* \"contracts/Election.sol\":1822:1837  _candidateIndex */\n      dup1\n        /* \"contracts/Election.sol\":1796:1802  voters */\n      0x03\n        /* \"contracts/Election.sol\":1796:1814  voters[msg.sender] */\n      0x00\n        /* \"contracts/Election.sol\":1803:1813  msg.sender */\n      caller\n        /* \"contracts/Election.sol\":1796:1814  voters[msg.sender] */\n      0xffffffffffffffffffffffffffffffffffffffff\n      and\n      0xffffffffffffffffffffffffffffffffffffffff\n      and\n      dup2\n      mstore\n      0x20\n      add\n      swap1\n      dup2\n      mstore\n      0x20\n      add\n      0x00\n      keccak256\n        /* \"contracts/Election.sol\":1796:1819  voters[msg.sender].c_id */\n      0x02\n      add\n        /* \"contracts/Election.sol\":1796:1837  voters[msg.sender].c_id = _candidateIndex */\n      dup2\n      swap1\n      sstore\n      pop\n        /* \"contracts/Election.sol\":1879:1883  true */\n      0x01\n        /* \"contracts/Election.sol\":1849:1855  voters */\n      0x03\n        /* \"contracts/Election.sol\":1849:1867  voters[msg.sender] */\n      0x00\n        /* \"contracts/Election.sol\":1856:1866  msg.sender */\n      caller\n        /* \"contracts/Election.sol\":1849:1867  voters[msg.sender] */\n      0xffffffffffffffffffffffffffffffffffffffff\n      and\n      0xffffffffffffffffffffffffffffffffffffffff\n      and\n      dup2\n      mstore\n      0x20\n      add\n      swap1\n      dup2\n      mstore\n      0x20\n      add\n      0x00\n      keccak256\n        /* \"contracts/Election.sol\":1849:1876  voters[msg.sender].hasVoted */\n      0x01\n      add\n      0x01\n        /* \"contracts/Election.sol\":1849:1883  voters[msg.sender].hasVoted = true */\n      0x0100\n      exp\n      dup2\n      sload\n      dup2\n      0xff\n      mul\n      not\n      and\n      swap1\n      dup4\n      iszero\n      iszero\n      mul\n      or\n      swap1\n      sstore\n      pop\n        /* \"contracts/Election.sol\":1895:1905  candidates */\n      0x04\n        /* \"contracts/Election.sol\":1906:1921  _candidateIndex */\n      dup2\n        /* \"contracts/Election.sol\":1895:1922  candidates[_candidateIndex] */\n      dup2\n      sload\n      dup2\n      lt\n      tag_57\n      jumpi\n      tag_58\n      tag_59\n      jump\t// in\n    tag_58:\n    tag_57:\n      swap1\n      0x00\n      mstore\n      keccak256(0x00, 0x20)\n      swap1\n      0x02\n      mul\n      add\n        /* \"contracts/Election.sol\":1895:1933  candidates[_candidateIndex].numOfVotes */\n      0x01\n      add\n      0x00\n        /* \"contracts/Election.sol\":1895:1935  candidates[_candidateIndex].numOfVotes++ */\n      dup2\n      sload\n      dup1\n      swap3\n      swap2\n      swap1\n      tag_61\n      swap1\n      tag_62\n      jump\t// in\n    tag_61:\n      swap2\n      swap1\n      pop\n      sstore\n      pop\n        /* \"contracts/Election.sol\":1947:1957  totalVotes */\n      0x02\n      0x00\n        /* \"contracts/Election.sol\":1947:1959  totalVotes++ */\n      dup2\n      sload\n      dup1\n      swap3\n      swap2\n      swap1\n      tag_63\n      swap1\n      tag_62\n      jump\t// in\n    tag_63:\n      swap2\n      swap1\n      pop\n      sstore\n      pop\n        /* \"contracts/Election.sol\":1644:1968  function vote(uint _candidateIndex) public{... */\n      pop\n      jump\t// out\n        /* \"contracts/Election.sol\":682:704  uint public totalVotes */\n    tag_19:\n      sload(0x02)\n      dup2\n      jump\t// out\n        /* \"contracts/Election.sol\":835:864  Candidate[] public candidates */\n    tag_24:\n      0x04\n      dup2\n      dup2\n      sload\n      dup2\n      lt\n      tag_64\n      jumpi\n      0x00\n      dup1\n      revert\n    tag_64:\n      swap1\n      0x00\n      mstore\n      keccak256(0x00, 0x20)\n      swap1\n      0x02\n      mul\n      add\n      0x00\n      swap2\n      pop\n      swap1\n      pop\n      dup1\n      0x00\n      add\n      dup1\n      sload\n      tag_66\n      swap1\n      tag_67\n      jump\t// in\n    tag_66:\n      dup1\n      0x1f\n      add\n      0x20\n      dup1\n      swap2\n      div\n      mul\n      0x20\n      add\n      mload(0x40)\n      swap1\n      dup2\n      add\n      0x40\n      mstore\n      dup1\n      swap3\n      swap2\n      swap1\n      dup2\n      dup2\n      mstore\n      0x20\n      add\n      dup3\n      dup1\n      sload\n      tag_68\n      swap1\n      tag_67\n      jump\t// in\n    tag_68:\n      dup1\n      iszero\n      tag_69\n      jumpi\n      dup1\n      0x1f\n      lt\n      tag_70\n      jumpi\n      0x0100\n      dup1\n      dup4\n      sload\n      div\n      mul\n      dup4\n      mstore\n      swap2\n      0x20\n      add\n      swap2\n      jump(tag_69)\n    tag_70:\n      dup3\n      add\n      swap2\n      swap1\n      0x00\n      mstore\n      keccak256(0x00, 0x20)\n      swap1\n    tag_71:\n      dup2\n      sload\n      dup2\n      mstore\n      swap1\n      0x01\n      add\n      swap1\n      0x20\n      add\n      dup1\n      dup4\n      gt\n      tag_71\n      jumpi\n      dup3\n      swap1\n      sub\n      0x1f\n      and\n      dup3\n      add\n      swap2\n    tag_69:\n      pop\n      pop\n      pop\n      pop\n      pop\n      swap1\n      dup1\n      0x01\n      add\n      sload\n      swap1\n      pop\n      dup3\n      jump\t// out\n        /* \"contracts/Election.sol\":1153:1311  function addCandidate(string memory _candidateName)ownerOnly public { //owner only modifer used... */\n    tag_30:\n        /* \"contracts/Election.sol\":569:587  smartContractOwner */\n      0x00\n      dup1\n      sload\n      swap1\n      0x0100\n      exp\n      swap1\n      div\n      0xffffffffffffffffffffffffffffffffffffffff\n      and\n        /* \"contracts/Election.sol\":555:587  msg.sender == smartContractOwner */\n      0xffffffffffffffffffffffffffffffffffffffff\n      and\n        /* \"contracts/Election.sol\":555:565  msg.sender */\n      caller\n        /* \"contracts/Election.sol\":555:587  msg.sender == smartContractOwner */\n      0xffffffffffffffffffffffffffffffffffffffff\n      and\n      eq\n        /* \"contracts/Election.sol\":547:588  require(msg.sender == smartContractOwner) */\n      tag_73\n      jumpi\n      0x00\n      dup1\n      revert\n    tag_73:\n        /* \"contracts/Election.sol\":1258:1268  candidates */\n      0x04\n        /* \"contracts/Election.sol\":1274:1302  Candidate(_candidateName, 0) */\n      mload(0x40)\n      dup1\n      0x40\n      add\n      0x40\n      mstore\n      dup1\n        /* \"contracts/Election.sol\":1284:1298  _candidateName */\n      dup4\n        /* \"contracts/Election.sol\":1274:1302  Candidate(_candidateName, 0) */\n      dup2\n      mstore\n      0x20\n      add\n        /* \"contracts/Election.sol\":1300:1301  0 */\n      0x00\n        /* \"contracts/Election.sol\":1274:1302  Candidate(_candidateName, 0) */\n      dup2\n      mstore\n      pop\n        /* \"contracts/Election.sol\":1258:1303  candidates.push(Candidate(_candidateName, 0)) */\n      swap1\n      dup1\n      0x01\n      dup2\n      sload\n      add\n      dup1\n      dup3\n      sstore\n      dup1\n      swap2\n      pop\n      pop\n      0x01\n      swap1\n      sub\n      swap1\n      0x00\n      mstore\n      keccak256(0x00, 0x20)\n      swap1\n      0x02\n      mul\n      add\n      0x00\n      swap1\n      swap2\n      swap1\n      swap2\n      swap1\n      swap2\n      pop\n      0x00\n      dup3\n      add\n      mload\n      dup2\n      0x00\n      add\n      swap1\n      dup2\n      tag_76\n      swap2\n      swap1\n      tag_77\n      jump\t// in\n    tag_76:\n      pop\n      0x20\n      dup3\n      add\n      mload\n      dup2\n      0x01\n      add\n      sstore\n      pop\n      pop\n        /* \"contracts/Election.sol\":1153:1311  function addCandidate(string memory _candidateName)ownerOnly public { //owner only modifer used... */\n      pop\n      jump\t// out\n        /* \"contracts/Election.sol\":1355:1480  function AuthorizeVoter(address _voterAddress) ownerOnly public {... */\n    tag_34:\n        /* \"contracts/Election.sol\":569:587  smartContractOwner */\n      0x00\n      dup1\n      sload\n      swap1\n      0x0100\n      exp\n      swap1\n      div\n      0xffffffffffffffffffffffffffffffffffffffff\n      and\n        /* \"contracts/Election.sol\":555:587  msg.sender == smartContractOwner */\n      0xffffffffffffffffffffffffffffffffffffffff\n      and\n        /* \"contracts/Election.sol\":555:565  msg.sender */\n      caller\n        /* \"contracts/Election.sol\":555:587  msg.sender == smartContractOwner */\n      0xffffffffffffffffffffffffffffffffffffffff\n      and\n      eq\n        /* \"contracts/Election.sol\":547:588  require(msg.sender == smartContractOwner) */\n      tag_79\n      jumpi\n      0x00\n      dup1\n      revert\n    tag_79:\n        /* \"contracts/Election.sol\":1467:1471  true */\n      0x01\n        /* \"contracts/Election.sol\":1430:1436  voters */\n      0x03\n        /* \"contracts/Election.sol\":1430:1451  voters[_voterAddress] */\n      0x00\n        /* \"contracts/Election.sol\":1437:1450  _voterAddress */\n      dup4\n        /* \"contracts/Election.sol\":1430:1451  voters[_voterAddress] */\n      0xffffffffffffffffffffffffffffffffffffffff\n      and\n      0xffffffffffffffffffffffffffffffffffffffff\n      and\n      dup2\n      mstore\n      0x20\n      add\n      swap1\n      dup2\n      mstore\n      0x20\n      add\n      0x00\n      keccak256\n        /* \"contracts/Election.sol\":1430:1464  voters[_voterAddress].isAuthorized */\n      0x01\n      add\n      0x00\n        /* \"contracts/Election.sol\":1430:1471  voters[_voterAddress].isAuthorized = true */\n      0x0100\n      exp\n      dup2\n      sload\n      dup2\n      0xff\n      mul\n      not\n      and\n      swap1\n      dup4\n      iszero\n      iszero\n      mul\n      or\n      swap1\n      sstore\n      pop\n        /* \"contracts/Election.sol\":1355:1480  function AuthorizeVoter(address _voterAddress) ownerOnly public {... */\n      pop\n      jump\t// out\n        /* \"contracts/Election.sol\":648:674  string public electionName */\n    tag_36:\n      0x01\n      dup1\n      sload\n      tag_81\n      swap1\n      tag_67\n      jump\t// in\n    tag_81:\n      dup1\n      0x1f\n      add\n      0x20\n      dup1\n      swap2\n      div\n      mul\n      0x20\n      add\n      mload(0x40)\n      swap1\n      dup2\n      add\n      0x40\n      mstore\n      dup1\n      swap3\n      swap2\n      swap1\n      dup2\n      dup2\n      mstore\n      0x20\n      add\n      dup3\n      dup1\n      sload\n      tag_82\n      swap1\n      tag_67\n      jump\t// in\n    tag_82:\n      dup1\n      iszero\n      tag_83\n      jumpi\n      dup1\n      0x1f\n      lt\n      tag_84\n      jumpi\n      0x0100\n      dup1\n      dup4\n      sload\n      div\n      mul\n      dup4\n      mstore\n      swap2\n      0x20\n      add\n      swap2\n      jump(tag_83)\n    tag_84:\n      dup3\n      add\n      swap2\n      swap1\n      0x00\n      mstore\n      keccak256(0x00, 0x20)\n      swap1\n    tag_85:\n      dup2\n      sload\n      dup2\n      mstore\n      swap1\n      0x01\n      add\n      swap1\n      0x20\n      add\n      dup1\n      dup4\n      gt\n      tag_85\n      jumpi\n      dup3\n      swap1\n      sub\n      0x1f\n      and\n      dup3\n      add\n      swap2\n    tag_83:\n      pop\n      pop\n      pop\n      pop\n      pop\n      dup2\n      jump\t// out\n        /* \"contracts/Election.sol\":413:446  address public smartContractOwner */\n    tag_40:\n      0x00\n      dup1\n      sload\n      swap1\n      0x0100\n      exp\n      swap1\n      div\n      0xffffffffffffffffffffffffffffffffffffffff\n      and\n      dup2\n      jump\t// out\n        /* \"contracts/Election.sol\":760:799  mapping(address => Voter) public voters */\n    tag_45:\n      mstore(0x20, 0x03)\n      dup1\n      0x00\n      mstore\n      keccak256(0x00, 0x40)\n      0x00\n      swap2\n      pop\n      swap1\n      pop\n      dup1\n      0x00\n      add\n      dup1\n      sload\n      tag_86\n      swap1\n      tag_67\n      jump\t// in\n    tag_86:\n      dup1\n      0x1f\n      add\n      0x20\n      dup1\n      swap2\n      div\n      mul\n      0x20\n      add\n      mload(0x40)\n      swap1\n      dup2\n      add\n      0x40\n      mstore\n      dup1\n      swap3\n      swap2\n      swap1\n      dup2\n      dup2\n      mstore\n      0x20\n      add\n      dup3\n      dup1\n      sload\n      tag_87\n      swap1\n      tag_67\n      jump\t// in\n    tag_87:\n      dup1\n      iszero\n      tag_88\n      jumpi\n      dup1\n      0x1f\n      lt\n      tag_89\n      jumpi\n      0x0100\n      dup1\n      dup4\n      sload\n      div\n      mul\n      dup4\n      mstore\n      swap2\n      0x20\n      add\n      swap2\n      jump(tag_88)\n    tag_89:\n      dup3\n      add\n      swap2\n      swap1\n      0x00\n      mstore\n      keccak256(0x00, 0x20)\n      swap1\n    tag_90:\n      dup2\n      sload\n      dup2\n      mstore\n      swap1\n      0x01\n      add\n      swap1\n      0x20\n      add\n      dup1\n      dup4\n      gt\n      tag_90\n      jumpi\n      dup3\n      swap1\n      sub\n      0x1f\n      and\n      dup3\n      add\n      swap2\n    tag_88:\n      pop\n      pop\n      pop\n      pop\n      pop\n      swap1\n      dup1\n      0x01\n      add\n      0x00\n      swap1\n      sload\n      swap1\n      0x0100\n      exp\n      swap1\n      div\n      0xff\n      and\n      swap1\n      dup1\n      0x01\n      add\n      0x01\n      swap1\n      sload\n      swap1\n      0x0100\n      exp\n      swap1\n      div\n      0xff\n      and\n      swap1\n      dup1\n      0x02\n      add\n      sload\n      swap1\n      pop\n      dup5\n      jump\t// out\n        /* \"contracts/Election.sol\":1524:1622  function getNumOfCandidates() public view returns(uint){... */\n    tag_49:\n        /* \"contracts/Election.sol\":1574:1578  uint */\n      0x00\n        /* \"contracts/Election.sol\":1597:1607  candidates */\n      0x04\n        /* \"contracts/Election.sol\":1597:1614  candidates.length */\n      dup1\n      sload\n      swap1\n      pop\n        /* \"contracts/Election.sol\":1590:1614  return candidates.length */\n      swap1\n      pop\n        /* \"contracts/Election.sol\":1524:1622  function getNumOfCandidates() public view returns(uint){... */\n      swap1\n      jump\t// out\n        /* \"contracts/Election.sol\":901:1110  function startElection(string memory _electionName) public {... */\n    tag_53:\n        /* \"contracts/Election.sol\":992:1002  msg.sender */\n      caller\n        /* \"contracts/Election.sol\":971:989  smartContractOwner */\n      0x00\n      dup1\n        /* \"contracts/Election.sol\":971:1002  smartContractOwner = msg.sender */\n      0x0100\n      exp\n      dup2\n      sload\n      dup2\n      0xffffffffffffffffffffffffffffffffffffffff\n      mul\n      not\n      and\n      swap1\n      dup4\n      0xffffffffffffffffffffffffffffffffffffffff\n      and\n      mul\n      or\n      swap1\n      sstore\n      pop\n        /* \"contracts/Election.sol\":1088:1101  _electionName */\n      dup1\n        /* \"contracts/Election.sol\":1073:1085  electionName */\n      0x01\n        /* \"contracts/Election.sol\":1073:1101  electionName = _electionName */\n      swap1\n      dup2\n      tag_93\n      swap2\n      swap1\n      tag_77\n      jump\t// in\n    tag_93:\n      pop\n        /* \"contracts/Election.sol\":901:1110  function startElection(string memory _electionName) public {... */\n      pop\n      jump\t// out\n        /* \"#utility.yul\":7:82   */\n    tag_94:\n        /* \"#utility.yul\":40:46   */\n      0x00\n        /* \"#utility.yul\":73:75   */\n      0x40\n        /* \"#utility.yul\":67:76   */\n      mload\n        /* \"#utility.yul\":57:76   */\n      swap1\n      pop\n        /* \"#utility.yul\":7:82   */\n      swap1\n      jump\t// out\n        /* \"#utility.yul\":88:205   */\n    tag_95:\n        /* \"#utility.yul\":197:198   */\n      0x00\n        /* \"#utility.yul\":194:195   */\n      dup1\n        /* \"#utility.yul\":187:199   */\n      revert\n        /* \"#utility.yul\":211:328   */\n    tag_96:\n        /* \"#utility.yul\":320:321   */\n      0x00\n        /* \"#utility.yul\":317:318   */\n      dup1\n        /* \"#utility.yul\":310:322   */\n      revert\n        /* \"#utility.yul\":334:411   */\n    tag_97:\n        /* \"#utility.yul\":371:378   */\n      0x00\n        /* \"#utility.yul\":400:405   */\n      dup2\n        /* \"#utility.yul\":389:405   */\n      swap1\n      pop\n        /* \"#utility.yul\":334:411   */\n      swap2\n      swap1\n      pop\n      jump\t// out\n        /* \"#utility.yul\":417:539   */\n    tag_98:\n        /* \"#utility.yul\":490:514   */\n      tag_145\n        /* \"#utility.yul\":508:513   */\n      dup2\n        /* \"#utility.yul\":490:514   */\n      tag_97\n      jump\t// in\n    tag_145:\n        /* \"#utility.yul\":483:488   */\n      dup2\n        /* \"#utility.yul\":480:515   */\n      eq\n        /* \"#utility.yul\":470:533   */\n      tag_146\n      jumpi\n        /* \"#utility.yul\":529:530   */\n      0x00\n        /* \"#utility.yul\":526:527   */\n      dup1\n        /* \"#utility.yul\":519:531   */\n      revert\n        /* \"#utility.yul\":470:533   */\n    tag_146:\n        /* \"#utility.yul\":417:539   */\n      pop\n      jump\t// out\n        /* \"#utility.yul\":545:684   */\n    tag_99:\n        /* \"#utility.yul\":591:596   */\n      0x00\n        /* \"#utility.yul\":629:635   */\n      dup2\n        /* \"#utility.yul\":616:636   */\n      calldataload\n        /* \"#utility.yul\":607:636   */\n      swap1\n      pop\n        /* \"#utility.yul\":645:678   */\n      tag_148\n        /* \"#utility.yul\":672:677   */\n      dup2\n        /* \"#utility.yul\":645:678   */\n      tag_98\n      jump\t// in\n    tag_148:\n        /* \"#utility.yul\":545:684   */\n      swap3\n      swap2\n      pop\n      pop\n      jump\t// out\n        /* \"#utility.yul\":690:1019   */\n    tag_16:\n        /* \"#utility.yul\":749:755   */\n      0x00\n        /* \"#utility.yul\":798:800   */\n      0x20\n        /* \"#utility.yul\":786:795   */\n      dup3\n        /* \"#utility.yul\":777:784   */\n      dup5\n        /* \"#utility.yul\":773:796   */\n      sub\n        /* \"#utility.yul\":769:801   */\n      slt\n        /* \"#utility.yul\":766:885   */\n      iszero\n      tag_150\n      jumpi\n        /* \"#utility.yul\":804:883   */\n      tag_151\n      tag_95\n      jump\t// in\n    tag_151:\n        /* \"#utility.yul\":766:885   */\n    tag_150:\n        /* \"#utility.yul\":924:925   */\n      0x00\n        /* \"#utility.yul\":949:1002   */\n      tag_152\n        /* \"#utility.yul\":994:1001   */\n      dup5\n        /* \"#utility.yul\":985:991   */\n      dup3\n        /* \"#utility.yul\":974:983   */\n      dup6\n        /* \"#utility.yul\":970:992   */\n      add\n        /* \"#utility.yul\":949:1002   */\n      tag_99\n      jump\t// in\n    tag_152:\n        /* \"#utility.yul\":939:1002   */\n      swap2\n      pop\n        /* \"#utility.yul\":895:1012   */\n      pop\n        /* \"#utility.yul\":690:1019   */\n      swap3\n      swap2\n      pop\n      pop\n      jump\t// out\n        /* \"#utility.yul\":1025:1143   */\n    tag_100:\n        /* \"#utility.yul\":1112:1136   */\n      tag_154\n        /* \"#utility.yul\":1130:1135   */\n      dup2\n        /* \"#utility.yul\":1112:1136   */\n      tag_97\n      jump\t// in\n    tag_154:\n        /* \"#utility.yul\":1107:1110   */\n      dup3\n        /* \"#utility.yul\":1100:1137   */\n      mstore\n        /* \"#utility.yul\":1025:1143   */\n      pop\n      pop\n      jump\t// out\n        /* \"#utility.yul\":1149:1371   */\n    tag_21:\n        /* \"#utility.yul\":1242:1246   */\n      0x00\n        /* \"#utility.yul\":1280:1282   */\n      0x20\n        /* \"#utility.yul\":1269:1278   */\n      dup3\n        /* \"#utility.yul\":1265:1283   */\n      add\n        /* \"#utility.yul\":1257:1283   */\n      swap1\n      pop\n        /* \"#utility.yul\":1293:1364   */\n      tag_156\n        /* \"#utility.yul\":1361:1362   */\n      0x00\n        /* \"#utility.yul\":1350:1359   */\n      dup4\n        /* \"#utility.yul\":1346:1363   */\n      add\n        /* \"#utility.yul\":1337:1343   */\n      dup5\n        /* \"#utility.yul\":1293:1364   */\n      tag_100\n      jump\t// in\n    tag_156:\n        /* \"#utility.yul\":1149:1371   */\n      swap3\n      swap2\n      pop\n      pop\n      jump\t// out\n        /* \"#utility.yul\":1377:1476   */\n    tag_101:\n        /* \"#utility.yul\":1429:1435   */\n      0x00\n        /* \"#utility.yul\":1463:1468   */\n      dup2\n        /* \"#utility.yul\":1457:1469   */\n      mload\n        /* \"#utility.yul\":1447:1469   */\n      swap1\n      pop\n        /* \"#utility.yul\":1377:1476   */\n      swap2\n      swap1\n      pop\n      jump\t// out\n        /* \"#utility.yul\":1482:1651   */\n    tag_102:\n        /* \"#utility.yul\":1566:1577   */\n      0x00\n        /* \"#utility.yul\":1600:1606   */\n      dup3\n        /* \"#utility.yul\":1595:1598   */\n      dup3\n        /* \"#utility.yul\":1588:1607   */\n      mstore\n        /* \"#utility.yul\":1640:1644   */\n      0x20\n        /* \"#utility.yul\":1635:1638   */\n      dup3\n        /* \"#utility.yul\":1631:1645   */\n      add\n        /* \"#utility.yul\":1616:1645   */\n      swap1\n      pop\n        /* \"#utility.yul\":1482:1651   */\n      swap3\n      swap2\n      pop\n      pop\n      jump\t// out\n        /* \"#utility.yul\":1657:1903   */\n    tag_103:\n        /* \"#utility.yul\":1738:1739   */\n      0x00\n        /* \"#utility.yul\":1748:1861   */\n    tag_160:\n        /* \"#utility.yul\":1762:1768   */\n      dup4\n        /* \"#utility.yul\":1759:1760   */\n      dup2\n        /* \"#utility.yul\":1756:1769   */\n      lt\n        /* \"#utility.yul\":1748:1861   */\n      iszero\n      tag_162\n      jumpi\n        /* \"#utility.yul\":1847:1848   */\n      dup1\n        /* \"#utility.yul\":1842:1845   */\n      dup3\n        /* \"#utility.yul\":1838:1849   */\n      add\n        /* \"#utility.yul\":1832:1850   */\n      mload\n        /* \"#utility.yul\":1828:1829   */\n      dup2\n        /* \"#utility.yul\":1823:1826   */\n      dup5\n        /* \"#utility.yul\":1819:1830   */\n      add\n        /* \"#utility.yul\":1812:1851   */\n      mstore\n        /* \"#utility.yul\":1784:1786   */\n      0x20\n        /* \"#utility.yul\":1781:1782   */\n      dup2\n        /* \"#utility.yul\":1777:1787   */\n      add\n        /* \"#utility.yul\":1772:1787   */\n      swap1\n      pop\n        /* \"#utility.yul\":1748:1861   */\n      jump(tag_160)\n    tag_162:\n        /* \"#utility.yul\":1895:1896   */\n      0x00\n        /* \"#utility.yul\":1886:1892   */\n      dup5\n        /* \"#utility.yul\":1881:1884   */\n      dup5\n        /* \"#utility.yul\":1877:1893   */\n      add\n        /* \"#utility.yul\":1870:1897   */\n      mstore\n        /* \"#utility.yul\":1719:1903   */\n      pop\n        /* \"#utility.yul\":1657:1903   */\n      pop\n      pop\n      pop\n      jump\t// out\n        /* \"#utility.yul\":1909:2011   */\n    tag_104:\n        /* \"#utility.yul\":1950:1956   */\n      0x00\n        /* \"#utility.yul\":2001:2003   */\n      0x1f\n        /* \"#utility.yul\":1997:2004   */\n      not\n        /* \"#utility.yul\":1992:1994   */\n      0x1f\n        /* \"#utility.yul\":1985:1990   */\n      dup4\n        /* \"#utility.yul\":1981:1995   */\n      add\n        /* \"#utility.yul\":1977:2005   */\n      and\n        /* \"#utility.yul\":1967:2005   */\n      swap1\n      pop\n        /* \"#utility.yul\":1909:2011   */\n      swap2\n      swap1\n      pop\n      jump\t// out\n        /* \"#utility.yul\":2017:2394   */\n    tag_105:\n        /* \"#utility.yul\":2105:2108   */\n      0x00\n        /* \"#utility.yul\":2133:2172   */\n      tag_165\n        /* \"#utility.yul\":2166:2171   */\n      dup3\n        /* \"#utility.yul\":2133:2172   */\n      tag_101\n      jump\t// in\n    tag_165:\n        /* \"#utility.yul\":2188:2259   */\n      tag_166\n        /* \"#utility.yul\":2252:2258   */\n      dup2\n        /* \"#utility.yul\":2247:2250   */\n      dup6\n        /* \"#utility.yul\":2188:2259   */\n      tag_102\n      jump\t// in\n    tag_166:\n        /* \"#utility.yul\":2181:2259   */\n      swap4\n      pop\n        /* \"#utility.yul\":2268:2333   */\n      tag_167\n        /* \"#utility.yul\":2326:2332   */\n      dup2\n        /* \"#utility.yul\":2321:2324   */\n      dup6\n        /* \"#utility.yul\":2314:2318   */\n      0x20\n        /* \"#utility.yul\":2307:2312   */\n      dup7\n        /* \"#utility.yul\":2303:2319   */\n      add\n        /* \"#utility.yul\":2268:2333   */\n      tag_103\n      jump\t// in\n    tag_167:\n        /* \"#utility.yul\":2358:2387   */\n      tag_168\n        /* \"#utility.yul\":2380:2386   */\n      dup2\n        /* \"#utility.yul\":2358:2387   */\n      tag_104\n      jump\t// in\n    tag_168:\n        /* \"#utility.yul\":2353:2356   */\n      dup5\n        /* \"#utility.yul\":2349:2388   */\n      add\n        /* \"#utility.yul\":2342:2388   */\n      swap2\n      pop\n        /* \"#utility.yul\":2109:2394   */\n      pop\n        /* \"#utility.yul\":2017:2394   */\n      swap3\n      swap2\n      pop\n      pop\n      jump\t// out\n        /* \"#utility.yul\":2400:2823   */\n    tag_26:\n        /* \"#utility.yul\":2541:2545   */\n      0x00\n        /* \"#utility.yul\":2579:2581   */\n      0x40\n        /* \"#utility.yul\":2568:2577   */\n      dup3\n        /* \"#utility.yul\":2564:2582   */\n      add\n        /* \"#utility.yul\":2556:2582   */\n      swap1\n      pop\n        /* \"#utility.yul\":2628:2637   */\n      dup2\n        /* \"#utility.yul\":2622:2626   */\n      dup2\n        /* \"#utility.yul\":2618:2638   */\n      sub\n        /* \"#utility.yul\":2614:2615   */\n      0x00\n        /* \"#utility.yul\":2603:2612   */\n      dup4\n        /* \"#utility.yul\":2599:2616   */\n      add\n        /* \"#utility.yul\":2592:2639   */\n      mstore\n        /* \"#utility.yul\":2656:2734   */\n      tag_170\n        /* \"#utility.yul\":2729:2733   */\n      dup2\n        /* \"#utility.yul\":2720:2726   */\n      dup6\n        /* \"#utility.yul\":2656:2734   */\n      tag_105\n      jump\t// in\n    tag_170:\n        /* \"#utility.yul\":2648:2734   */\n      swap1\n      pop\n        /* \"#utility.yul\":2744:2816   */\n      tag_171\n        /* \"#utility.yul\":2812:2814   */\n      0x20\n        /* \"#utility.yul\":2801:2810   */\n      dup4\n        /* \"#utility.yul\":2797:2815   */\n      add\n        /* \"#utility.yul\":2788:2794   */\n      dup5\n        /* \"#utility.yul\":2744:2816   */\n      tag_100\n      jump\t// in\n    tag_171:\n        /* \"#utility.yul\":2400:2823   */\n      swap4\n      swap3\n      pop\n      pop\n      pop\n      jump\t// out\n        /* \"#utility.yul\":2829:2946   */\n    tag_106:\n        /* \"#utility.yul\":2938:2939   */\n      0x00\n        /* \"#utility.yul\":2935:2936   */\n      dup1\n        /* \"#utility.yul\":2928:2940   */\n      revert\n        /* \"#utility.yul\":2952:3069   */\n    tag_107:\n        /* \"#utility.yul\":3061:3062   */\n      0x00\n        /* \"#utility.yul\":3058:3059   */\n      dup1\n        /* \"#utility.yul\":3051:3063   */\n      revert\n        /* \"#utility.yul\":3075:3255   */\n    tag_108:\n        /* \"#utility.yul\":3123:3200   */\n      0x4e487b7100000000000000000000000000000000000000000000000000000000\n        /* \"#utility.yul\":3120:3121   */\n      0x00\n        /* \"#utility.yul\":3113:3201   */\n      mstore\n        /* \"#utility.yul\":3220:3224   */\n      0x41\n        /* \"#utility.yul\":3217:3218   */\n      0x04\n        /* \"#utility.yul\":3210:3225   */\n      mstore\n        /* \"#utility.yul\":3244:3248   */\n      0x24\n        /* \"#utility.yul\":3241:3242   */\n      0x00\n        /* \"#utility.yul\":3234:3249   */\n      revert\n        /* \"#utility.yul\":3261:3542   */\n    tag_109:\n        /* \"#utility.yul\":3344:3371   */\n      tag_176\n        /* \"#utility.yul\":3366:3370   */\n      dup3\n        /* \"#utility.yul\":3344:3371   */\n      tag_104\n      jump\t// in\n    tag_176:\n        /* \"#utility.yul\":3336:3342   */\n      dup2\n        /* \"#utility.yul\":3332:3372   */\n      add\n        /* \"#utility.yul\":3474:3480   */\n      dup2\n        /* \"#utility.yul\":3462:3472   */\n      dup2\n        /* \"#utility.yul\":3459:3481   */\n      lt\n        /* \"#utility.yul\":3438:3456   */\n      0xffffffffffffffff\n        /* \"#utility.yul\":3426:3436   */\n      dup3\n        /* \"#utility.yul\":3423:3457   */\n      gt\n        /* \"#utility.yul\":3420:3482   */\n      or\n        /* \"#utility.yul\":3417:3505   */\n      iszero\n      tag_177\n      jumpi\n        /* \"#utility.yul\":3485:3503   */\n      tag_178\n      tag_108\n      jump\t// in\n    tag_178:\n        /* \"#utility.yul\":3417:3505   */\n    tag_177:\n        /* \"#utility.yul\":3525:3535   */\n      dup1\n        /* \"#utility.yul\":3521:3523   */\n      0x40\n        /* \"#utility.yul\":3514:3536   */\n      mstore\n        /* \"#utility.yul\":3304:3542   */\n      pop\n        /* \"#utility.yul\":3261:3542   */\n      pop\n      pop\n      jump\t// out\n        /* \"#utility.yul\":3548:3677   */\n    tag_110:\n        /* \"#utility.yul\":3582:3588   */\n      0x00\n        /* \"#utility.yul\":3609:3629   */\n      tag_180\n      tag_94\n      jump\t// in\n    tag_180:\n        /* \"#utility.yul\":3599:3629   */\n      swap1\n      pop\n        /* \"#utility.yul\":3638:3671   */\n      tag_181\n        /* \"#utility.yul\":3666:3670   */\n      dup3\n        /* \"#utility.yul\":3658:3664   */\n      dup3\n        /* \"#utility.yul\":3638:3671   */\n      tag_109\n      jump\t// in\n    tag_181:\n        /* \"#utility.yul\":3548:3677   */\n      swap2\n      swap1\n      pop\n      jump\t// out\n        /* \"#utility.yul\":3683:3991   */\n    tag_111:\n        /* \"#utility.yul\":3745:3749   */\n      0x00\n        /* \"#utility.yul\":3835:3853   */\n      0xffffffffffffffff\n        /* \"#utility.yul\":3827:3833   */\n      dup3\n        /* \"#utility.yul\":3824:3854   */\n      gt\n        /* \"#utility.yul\":3821:3877   */\n      iszero\n      tag_183\n      jumpi\n        /* \"#utility.yul\":3857:3875   */\n      tag_184\n      tag_108\n      jump\t// in\n    tag_184:\n        /* \"#utility.yul\":3821:3877   */\n    tag_183:\n        /* \"#utility.yul\":3895:3924   */\n      tag_185\n        /* \"#utility.yul\":3917:3923   */\n      dup3\n        /* \"#utility.yul\":3895:3924   */\n      tag_104\n      jump\t// in\n    tag_185:\n        /* \"#utility.yul\":3887:3924   */\n      swap1\n      pop\n        /* \"#utility.yul\":3979:3983   */\n      0x20\n        /* \"#utility.yul\":3973:3977   */\n      dup2\n        /* \"#utility.yul\":3969:3984   */\n      add\n        /* \"#utility.yul\":3961:3984   */\n      swap1\n      pop\n        /* \"#utility.yul\":3683:3991   */\n      swap2\n      swap1\n      pop\n      jump\t// out\n        /* \"#utility.yul\":3997:4143   */\n    tag_112:\n        /* \"#utility.yul\":4094:4100   */\n      dup3\n        /* \"#utility.yul\":4089:4092   */\n      dup2\n        /* \"#utility.yul\":4084:4087   */\n      dup4\n        /* \"#utility.yul\":4071:4101   */\n      calldatacopy\n        /* \"#utility.yul\":4135:4136   */\n      0x00\n        /* \"#utility.yul\":4126:4132   */\n      dup4\n        /* \"#utility.yul\":4121:4124   */\n      dup4\n        /* \"#utility.yul\":4117:4133   */\n      add\n        /* \"#utility.yul\":4110:4137   */\n      mstore\n        /* \"#utility.yul\":3997:4143   */\n      pop\n      pop\n      pop\n      jump\t// out\n        /* \"#utility.yul\":4149:4574   */\n    tag_113:\n        /* \"#utility.yul\":4227:4232   */\n      0x00\n        /* \"#utility.yul\":4252:4318   */\n      tag_188\n        /* \"#utility.yul\":4268:4317   */\n      tag_189\n        /* \"#utility.yul\":4310:4316   */\n      dup5\n        /* \"#utility.yul\":4268:4317   */\n      tag_111\n      jump\t// in\n    tag_189:\n        /* \"#utility.yul\":4252:4318   */\n      tag_110\n      jump\t// in\n    tag_188:\n        /* \"#utility.yul\":4243:4318   */\n      swap1\n      pop\n        /* \"#utility.yul\":4341:4347   */\n      dup3\n        /* \"#utility.yul\":4334:4339   */\n      dup2\n        /* \"#utility.yul\":4327:4348   */\n      mstore\n        /* \"#utility.yul\":4379:4383   */\n      0x20\n        /* \"#utility.yul\":4372:4377   */\n      dup2\n        /* \"#utility.yul\":4368:4384   */\n      add\n        /* \"#utility.yul\":4417:4420   */\n      dup5\n        /* \"#utility.yul\":4408:4414   */\n      dup5\n        /* \"#utility.yul\":4403:4406   */\n      dup5\n        /* \"#utility.yul\":4399:4415   */\n      add\n        /* \"#utility.yul\":4396:4421   */\n      gt\n        /* \"#utility.yul\":4393:4505   */\n      iszero\n      tag_190\n      jumpi\n        /* \"#utility.yul\":4424:4503   */\n      tag_191\n      tag_107\n      jump\t// in\n    tag_191:\n        /* \"#utility.yul\":4393:4505   */\n    tag_190:\n        /* \"#utility.yul\":4514:4568   */\n      tag_192\n        /* \"#utility.yul\":4561:4567   */\n      dup5\n        /* \"#utility.yul\":4556:4559   */\n      dup3\n        /* \"#utility.yul\":4551:4554   */\n      dup6\n        /* \"#utility.yul\":4514:4568   */\n      tag_112\n      jump\t// in\n    tag_192:\n        /* \"#utility.yul\":4233:4574   */\n      pop\n        /* \"#utility.yul\":4149:4574   */\n      swap4\n      swap3\n      pop\n      pop\n      pop\n      jump\t// out\n        /* \"#utility.yul\":4594:4934   */\n    tag_114:\n        /* \"#utility.yul\":4650:4655   */\n      0x00\n        /* \"#utility.yul\":4699:4702   */\n      dup3\n        /* \"#utility.yul\":4692:4696   */\n      0x1f\n        /* \"#utility.yul\":4684:4690   */\n      dup4\n        /* \"#utility.yul\":4680:4697   */\n      add\n        /* \"#utility.yul\":4676:4703   */\n      slt\n        /* \"#utility.yul\":4666:4788   */\n      tag_194\n      jumpi\n        /* \"#utility.yul\":4707:4786   */\n      tag_195\n      tag_106\n      jump\t// in\n    tag_195:\n        /* \"#utility.yul\":4666:4788   */\n    tag_194:\n        /* \"#utility.yul\":4824:4830   */\n      dup2\n        /* \"#utility.yul\":4811:4831   */\n      calldataload\n        /* \"#utility.yul\":4849:4928   */\n      tag_196\n        /* \"#utility.yul\":4924:4927   */\n      dup5\n        /* \"#utility.yul\":4916:4922   */\n      dup3\n        /* \"#utility.yul\":4909:4913   */\n      0x20\n        /* \"#utility.yul\":4901:4907   */\n      dup7\n        /* \"#utility.yul\":4897:4914   */\n      add\n        /* \"#utility.yul\":4849:4928   */\n      tag_113\n      jump\t// in\n    tag_196:\n        /* \"#utility.yul\":4840:4928   */\n      swap2\n      pop\n        /* \"#utility.yul\":4656:4934   */\n      pop\n        /* \"#utility.yul\":4594:4934   */\n      swap3\n      swap2\n      pop\n      pop\n      jump\t// out\n        /* \"#utility.yul\":4940:5449   */\n    tag_29:\n        /* \"#utility.yul\":5009:5015   */\n      0x00\n        /* \"#utility.yul\":5058:5060   */\n      0x20\n        /* \"#utility.yul\":5046:5055   */\n      dup3\n        /* \"#utility.yul\":5037:5044   */\n      dup5\n        /* \"#utility.yul\":5033:5056   */\n      sub\n        /* \"#utility.yul\":5029:5061   */\n      slt\n        /* \"#utility.yul\":5026:5145   */\n      iszero\n      tag_198\n      jumpi\n        /* \"#utility.yul\":5064:5143   */\n      tag_199\n      tag_95\n      jump\t// in\n    tag_199:\n        /* \"#utility.yul\":5026:5145   */\n    tag_198:\n        /* \"#utility.yul\":5212:5213   */\n      0x00\n        /* \"#utility.yul\":5201:5210   */\n      dup3\n        /* \"#utility.yul\":5197:5214   */\n      add\n        /* \"#utility.yul\":5184:5215   */\n      calldataload\n        /* \"#utility.yul\":5242:5260   */\n      0xffffffffffffffff\n        /* \"#utility.yul\":5234:5240   */\n      dup2\n        /* \"#utility.yul\":5231:5261   */\n      gt\n        /* \"#utility.yul\":5228:5345   */\n      iszero\n      tag_200\n      jumpi\n        /* \"#utility.yul\":5264:5343   */\n      tag_201\n      tag_96\n      jump\t// in\n    tag_201:\n        /* \"#utility.yul\":5228:5345   */\n    tag_200:\n        /* \"#utility.yul\":5369:5432   */\n      tag_202\n        /* \"#utility.yul\":5424:5431   */\n      dup5\n        /* \"#utility.yul\":5415:5421   */\n      dup3\n        /* \"#utility.yul\":5404:5413   */\n      dup6\n        /* \"#utility.yul\":5400:5422   */\n      add\n        /* \"#utility.yul\":5369:5432   */\n      tag_114\n      jump\t// in\n    tag_202:\n        /* \"#utility.yul\":5359:5432   */\n      swap2\n      pop\n        /* \"#utility.yul\":5155:5442   */\n      pop\n        /* \"#utility.yul\":4940:5449   */\n      swap3\n      swap2\n      pop\n      pop\n      jump\t// out\n        /* \"#utility.yul\":5455:5581   */\n    tag_115:\n        /* \"#utility.yul\":5492:5499   */\n      0x00\n        /* \"#utility.yul\":5532:5574   */\n      0xffffffffffffffffffffffffffffffffffffffff\n        /* \"#utility.yul\":5525:5530   */\n      dup3\n        /* \"#utility.yul\":5521:5575   */\n      and\n        /* \"#utility.yul\":5510:5575   */\n      swap1\n      pop\n        /* \"#utility.yul\":5455:5581   */\n      swap2\n      swap1\n      pop\n      jump\t// out\n        /* \"#utility.yul\":5587:5683   */\n    tag_116:\n        /* \"#utility.yul\":5624:5631   */\n      0x00\n        /* \"#utility.yul\":5653:5677   */\n      tag_205\n        /* \"#utility.yul\":5671:5676   */\n      dup3\n        /* \"#utility.yul\":5653:5677   */\n      tag_115\n      jump\t// in\n    tag_205:\n        /* \"#utility.yul\":5642:5677   */\n      swap1\n      pop\n        /* \"#utility.yul\":5587:5683   */\n      swap2\n      swap1\n      pop\n      jump\t// out\n        /* \"#utility.yul\":5689:5811   */\n    tag_117:\n        /* \"#utility.yul\":5762:5786   */\n      tag_207\n        /* \"#utility.yul\":5780:5785   */\n      dup2\n        /* \"#utility.yul\":5762:5786   */\n      tag_116\n      jump\t// in\n    tag_207:\n        /* \"#utility.yul\":5755:5760   */\n      dup2\n        /* \"#utility.yul\":5752:5787   */\n      eq\n        /* \"#utility.yul\":5742:5805   */\n      tag_208\n      jumpi\n        /* \"#utility.yul\":5801:5802   */\n      0x00\n        /* \"#utility.yul\":5798:5799   */\n      dup1\n        /* \"#utility.yul\":5791:5803   */\n      revert\n        /* \"#utility.yul\":5742:5805   */\n    tag_208:\n        /* \"#utility.yul\":5689:5811   */\n      pop\n      jump\t// out\n        /* \"#utility.yul\":5817:5956   */\n    tag_118:\n        /* \"#utility.yul\":5863:5868   */\n      0x00\n        /* \"#utility.yul\":5901:5907   */\n      dup2\n        /* \"#utility.yul\":5888:5908   */\n      calldataload\n        /* \"#utility.yul\":5879:5908   */\n      swap1\n      pop\n        /* \"#utility.yul\":5917:5950   */\n      tag_210\n        /* \"#utility.yul\":5944:5949   */\n      dup2\n        /* \"#utility.yul\":5917:5950   */\n      tag_117\n      jump\t// in\n    tag_210:\n        /* \"#utility.yul\":5817:5956   */\n      swap3\n      swap2\n      pop\n      pop\n      jump\t// out\n        /* \"#utility.yul\":5962:6291   */\n    tag_33:\n        /* \"#utility.yul\":6021:6027   */\n      0x00\n        /* \"#utility.yul\":6070:6072   */\n      0x20\n        /* \"#utility.yul\":6058:6067   */\n      dup3\n        /* \"#utility.yul\":6049:6056   */\n      dup5\n        /* \"#utility.yul\":6045:6068   */\n      sub\n        /* \"#utility.yul\":6041:6073   */\n      slt\n        /* \"#utility.yul\":6038:6157   */\n      iszero\n      tag_212\n      jumpi\n        /* \"#utility.yul\":6076:6155   */\n      tag_213\n      tag_95\n      jump\t// in\n    tag_213:\n        /* \"#utility.yul\":6038:6157   */\n    tag_212:\n        /* \"#utility.yul\":6196:6197   */\n      0x00\n        /* \"#utility.yul\":6221:6274   */\n      tag_214\n        /* \"#utility.yul\":6266:6273   */\n      dup5\n        /* \"#utility.yul\":6257:6263   */\n      dup3\n        /* \"#utility.yul\":6246:6255   */\n      dup6\n        /* \"#utility.yul\":6242:6264   */\n      add\n        /* \"#utility.yul\":6221:6274   */\n      tag_118\n      jump\t// in\n    tag_214:\n        /* \"#utility.yul\":6211:6274   */\n      swap2\n      pop\n        /* \"#utility.yul\":6167:6284   */\n      pop\n        /* \"#utility.yul\":5962:6291   */\n      swap3\n      swap2\n      pop\n      pop\n      jump\t// out\n        /* \"#utility.yul\":6297:6610   */\n    tag_38:\n        /* \"#utility.yul\":6410:6414   */\n      0x00\n        /* \"#utility.yul\":6448:6450   */\n      0x20\n        /* \"#utility.yul\":6437:6446   */\n      dup3\n        /* \"#utility.yul\":6433:6451   */\n      add\n        /* \"#utility.yul\":6425:6451   */\n      swap1\n      pop\n        /* \"#utility.yul\":6497:6506   */\n      dup2\n        /* \"#utility.yul\":6491:6495   */\n      dup2\n        /* \"#utility.yul\":6487:6507   */\n      sub\n        /* \"#utility.yul\":6483:6484   */\n      0x00\n        /* \"#utility.yul\":6472:6481   */\n      dup4\n        /* \"#utility.yul\":6468:6485   */\n      add\n        /* \"#utility.yul\":6461:6508   */\n      mstore\n        /* \"#utility.yul\":6525:6603   */\n      tag_216\n        /* \"#utility.yul\":6598:6602   */\n      dup2\n        /* \"#utility.yul\":6589:6595   */\n      dup5\n        /* \"#utility.yul\":6525:6603   */\n      tag_105\n      jump\t// in\n    tag_216:\n        /* \"#utility.yul\":6517:6603   */\n      swap1\n      pop\n        /* \"#utility.yul\":6297:6610   */\n      swap3\n      swap2\n      pop\n      pop\n      jump\t// out\n        /* \"#utility.yul\":6616:6734   */\n    tag_119:\n        /* \"#utility.yul\":6703:6727   */\n      tag_218\n        /* \"#utility.yul\":6721:6726   */\n      dup2\n        /* \"#utility.yul\":6703:6727   */\n      tag_116\n      jump\t// in\n    tag_218:\n        /* \"#utility.yul\":6698:6701   */\n      dup3\n        /* \"#utility.yul\":6691:6728   */\n      mstore\n        /* \"#utility.yul\":6616:6734   */\n      pop\n      pop\n      jump\t// out\n        /* \"#utility.yul\":6740:6962   */\n    tag_42:\n        /* \"#utility.yul\":6833:6837   */\n      0x00\n        /* \"#utility.yul\":6871:6873   */\n      0x20\n        /* \"#utility.yul\":6860:6869   */\n      dup3\n        /* \"#utility.yul\":6856:6874   */\n      add\n        /* \"#utility.yul\":6848:6874   */\n      swap1\n      pop\n        /* \"#utility.yul\":6884:6955   */\n      tag_220\n        /* \"#utility.yul\":6952:6953   */\n      0x00\n        /* \"#utility.yul\":6941:6950   */\n      dup4\n        /* \"#utility.yul\":6937:6954   */\n      add\n        /* \"#utility.yul\":6928:6934   */\n      dup5\n        /* \"#utility.yul\":6884:6955   */\n      tag_119\n      jump\t// in\n    tag_220:\n        /* \"#utility.yul\":6740:6962   */\n      swap3\n      swap2\n      pop\n      pop\n      jump\t// out\n        /* \"#utility.yul\":6968:7058   */\n    tag_120:\n        /* \"#utility.yul\":7002:7009   */\n      0x00\n        /* \"#utility.yul\":7045:7050   */\n      dup2\n        /* \"#utility.yul\":7038:7051   */\n      iszero\n        /* \"#utility.yul\":7031:7052   */\n      iszero\n        /* \"#utility.yul\":7020:7052   */\n      swap1\n      pop\n        /* \"#utility.yul\":6968:7058   */\n      swap2\n      swap1\n      pop\n      jump\t// out\n        /* \"#utility.yul\":7064:7173   */\n    tag_121:\n        /* \"#utility.yul\":7145:7166   */\n      tag_223\n        /* \"#utility.yul\":7160:7165   */\n      dup2\n        /* \"#utility.yul\":7145:7166   */\n      tag_120\n      jump\t// in\n    tag_223:\n        /* \"#utility.yul\":7140:7143   */\n      dup3\n        /* \"#utility.yul\":7133:7167   */\n      mstore\n        /* \"#utility.yul\":7064:7173   */\n      pop\n      pop\n      jump\t// out\n        /* \"#utility.yul\":7179:7799   */\n    tag_47:\n        /* \"#utility.yul\":7364:7368   */\n      0x00\n        /* \"#utility.yul\":7402:7405   */\n      0x80\n        /* \"#utility.yul\":7391:7400   */\n      dup3\n        /* \"#utility.yul\":7387:7406   */\n      add\n        /* \"#utility.yul\":7379:7406   */\n      swap1\n      pop\n        /* \"#utility.yul\":7452:7461   */\n      dup2\n        /* \"#utility.yul\":7446:7450   */\n      dup2\n        /* \"#utility.yul\":7442:7462   */\n      sub\n        /* \"#utility.yul\":7438:7439   */\n      0x00\n        /* \"#utility.yul\":7427:7436   */\n      dup4\n        /* \"#utility.yul\":7423:7440   */\n      add\n        /* \"#utility.yul\":7416:7463   */\n      mstore\n        /* \"#utility.yul\":7480:7558   */\n      tag_225\n        /* \"#utility.yul\":7553:7557   */\n      dup2\n        /* \"#utility.yul\":7544:7550   */\n      dup8\n        /* \"#utility.yul\":7480:7558   */\n      tag_105\n      jump\t// in\n    tag_225:\n        /* \"#utility.yul\":7472:7558   */\n      swap1\n      pop\n        /* \"#utility.yul\":7568:7634   */\n      tag_226\n        /* \"#utility.yul\":7630:7632   */\n      0x20\n        /* \"#utility.yul\":7619:7628   */\n      dup4\n        /* \"#utility.yul\":7615:7633   */\n      add\n        /* \"#utility.yul\":7606:7612   */\n      dup7\n        /* \"#utility.yul\":7568:7634   */\n      tag_121\n      jump\t// in\n    tag_226:\n        /* \"#utility.yul\":7644:7710   */\n      tag_227\n        /* \"#utility.yul\":7706:7708   */\n      0x40\n        /* \"#utility.yul\":7695:7704   */\n      dup4\n        /* \"#utility.yul\":7691:7709   */\n      add\n        /* \"#utility.yul\":7682:7688   */\n      dup6\n        /* \"#utility.yul\":7644:7710   */\n      tag_121\n      jump\t// in\n    tag_227:\n        /* \"#utility.yul\":7720:7792   */\n      tag_228\n        /* \"#utility.yul\":7788:7790   */\n      0x60\n        /* \"#utility.yul\":7777:7786   */\n      dup4\n        /* \"#utility.yul\":7773:7791   */\n      add\n        /* \"#utility.yul\":7764:7770   */\n      dup5\n        /* \"#utility.yul\":7720:7792   */\n      tag_100\n      jump\t// in\n    tag_228:\n        /* \"#utility.yul\":7179:7799   */\n      swap6\n      swap5\n      pop\n      pop\n      pop\n      pop\n      pop\n      jump\t// out\n        /* \"#utility.yul\":7805:7985   */\n    tag_59:\n        /* \"#utility.yul\":7853:7930   */\n      0x4e487b7100000000000000000000000000000000000000000000000000000000\n        /* \"#utility.yul\":7850:7851   */\n      0x00\n        /* \"#utility.yul\":7843:7931   */\n      mstore\n        /* \"#utility.yul\":7950:7954   */\n      0x32\n        /* \"#utility.yul\":7947:7948   */\n      0x04\n        /* \"#utility.yul\":7940:7955   */\n      mstore\n        /* \"#utility.yul\":7974:7978   */\n      0x24\n        /* \"#utility.yul\":7971:7972   */\n      0x00\n        /* \"#utility.yul\":7964:7979   */\n      revert\n        /* \"#utility.yul\":7991:8171   */\n    tag_122:\n        /* \"#utility.yul\":8039:8116   */\n      0x4e487b7100000000000000000000000000000000000000000000000000000000\n        /* \"#utility.yul\":8036:8037   */\n      0x00\n        /* \"#utility.yul\":8029:8117   */\n      mstore\n        /* \"#utility.yul\":8136:8140   */\n      0x11\n        /* \"#utility.yul\":8133:8134   */\n      0x04\n        /* \"#utility.yul\":8126:8141   */\n      mstore\n        /* \"#utility.yul\":8160:8164   */\n      0x24\n        /* \"#utility.yul\":8157:8158   */\n      0x00\n        /* \"#utility.yul\":8150:8165   */\n      revert\n        /* \"#utility.yul\":8177:8410   */\n    tag_62:\n        /* \"#utility.yul\":8216:8219   */\n      0x00\n        /* \"#utility.yul\":8239:8263   */\n      tag_232\n        /* \"#utility.yul\":8257:8262   */\n      dup3\n        /* \"#utility.yul\":8239:8263   */\n      tag_97\n      jump\t// in\n    tag_232:\n        /* \"#utility.yul\":8230:8263   */\n      swap2\n      pop\n        /* \"#utility.yul\":8285:8351   */\n      0xffffffffffffffffffffffffffffffffffffffffffffffffffffffffffffffff\n        /* \"#utility.yul\":8278:8283   */\n      dup3\n        /* \"#utility.yul\":8275:8352   */\n      sub\n        /* \"#utility.yul\":8272:8375   */\n      tag_233\n      jumpi\n        /* \"#utility.yul\":8355:8373   */\n      tag_234\n      tag_122\n      jump\t// in\n    tag_234:\n        /* \"#utility.yul\":8272:8375   */\n    tag_233:\n        /* \"#utility.yul\":8402:8403   */\n      0x01\n        /* \"#utility.yul\":8395:8400   */\n      dup3\n        /* \"#utility.yul\":8391:8404   */\n      add\n        /* \"#utility.yul\":8384:8404   */\n      swap1\n      pop\n        /* \"#utility.yul\":8177:8410   */\n      swap2\n      swap1\n      pop\n      jump\t// out\n        /* \"#utility.yul\":8416:8596   */\n    tag_123:\n        /* \"#utility.yul\":8464:8541   */\n      0x4e487b7100000000000000000000000000000000000000000000000000000000\n        /* \"#utility.yul\":8461:8462   */\n      0x00\n        /* \"#utility.yul\":8454:8542   */\n      mstore\n        /* \"#utility.yul\":8561:8565   */\n      0x22\n        /* \"#utility.yul\":8558:8559   */\n      0x04\n        /* \"#utility.yul\":8551:8566   */\n      mstore\n        /* \"#utility.yul\":8585:8589   */\n      0x24\n        /* \"#utility.yul\":8582:8583   */\n      0x00\n        /* \"#utility.yul\":8575:8590   */\n      revert\n        /* \"#utility.yul\":8602:8922   */\n    tag_67:\n        /* \"#utility.yul\":8646:8652   */\n      0x00\n        /* \"#utility.yul\":8683:8684   */\n      0x02\n        /* \"#utility.yul\":8677:8681   */\n      dup3\n        /* \"#utility.yul\":8673:8685   */\n      div\n        /* \"#utility.yul\":8663:8685   */\n      swap1\n      pop\n        /* \"#utility.yul\":8730:8731   */\n      0x01\n        /* \"#utility.yul\":8724:8728   */\n      dup3\n        /* \"#utility.yul\":8720:8732   */\n      and\n        /* \"#utility.yul\":8751:8769   */\n      dup1\n        /* \"#utility.yul\":8741:8822   */\n      tag_237\n      jumpi\n        /* \"#utility.yul\":8807:8811   */\n      0x7f\n        /* \"#utility.yul\":8799:8805   */\n      dup3\n        /* \"#utility.yul\":8795:8812   */\n      and\n        /* \"#utility.yul\":8785:8812   */\n      swap2\n      pop\n        /* \"#utility.yul\":8741:8822   */\n    tag_237:\n        /* \"#utility.yul\":8869:8871   */\n      0x20\n        /* \"#utility.yul\":8861:8867   */\n      dup3\n        /* \"#utility.yul\":8858:8872   */\n      lt\n        /* \"#utility.yul\":8838:8856   */\n      dup2\n        /* \"#utility.yul\":8835:8873   */\n      sub\n        /* \"#utility.yul\":8832:8916   */\n      tag_238\n      jumpi\n        /* \"#utility.yul\":8888:8906   */\n      tag_239\n      tag_123\n      jump\t// in\n    tag_239:\n        /* \"#utility.yul\":8832:8916   */\n    tag_238:\n        /* \"#utility.yul\":8653:8922   */\n      pop\n        /* \"#utility.yul\":8602:8922   */\n      swap2\n      swap1\n      pop\n      jump\t// out\n        /* \"#utility.yul\":8928:9069   */\n    tag_124:\n        /* \"#utility.yul\":8977:8981   */\n      0x00\n        /* \"#utility.yul\":9000:9003   */\n      dup2\n        /* \"#utility.yul\":8992:9003   */\n      swap1\n      pop\n        /* \"#utility.yul\":9023:9026   */\n      dup2\n        /* \"#utility.yul\":9020:9021   */\n      0x00\n        /* \"#utility.yul\":9013:9027   */\n      mstore\n        /* \"#utility.yul\":9057:9061   */\n      0x20\n        /* \"#utility.yul\":9054:9055   */\n      0x00\n        /* \"#utility.yul\":9044:9062   */\n      keccak256\n        /* \"#utility.yul\":9036:9062   */\n      swap1\n      pop\n        /* \"#utility.yul\":8928:9069   */\n      swap2\n      swap1\n      pop\n      jump\t// out\n        /* \"#utility.yul\":9075:9168   */\n    tag_125:\n        /* \"#utility.yul\":9112:9118   */\n      0x00\n        /* \"#utility.yul\":9159:9161   */\n      0x20\n        /* \"#utility.yul\":9154:9156   */\n      0x1f\n        /* \"#utility.yul\":9147:9152   */\n      dup4\n        /* \"#utility.yul\":9143:9157   */\n      add\n        /* \"#utility.yul\":9139:9162   */\n      div\n        /* \"#utility.yul\":9129:9162   */\n      swap1\n      pop\n        /* \"#utility.yul\":9075:9168   */\n      swap2\n      swap1\n      pop\n      jump\t// out\n        /* \"#utility.yul\":9174:9281   */\n    tag_126:\n        /* \"#utility.yul\":9218:9226   */\n      0x00\n        /* \"#utility.yul\":9268:9273   */\n      dup3\n        /* \"#utility.yul\":9262:9266   */\n      dup3\n        /* \"#utility.yul\":9258:9274   */\n      shl\n        /* \"#utility.yul\":9237:9274   */\n      swap1\n      pop\n        /* \"#utility.yul\":9174:9281   */\n      swap3\n      swap2\n      pop\n      pop\n      jump\t// out\n        /* \"#utility.yul\":9287:9680   */\n    tag_127:\n        /* \"#utility.yul\":9356:9362   */\n      0x00\n        /* \"#utility.yul\":9406:9407   */\n      0x08\n        /* \"#utility.yul\":9394:9404   */\n      dup4\n        /* \"#utility.yul\":9390:9408   */\n      mul\n        /* \"#utility.yul\":9429:9526   */\n      tag_244\n        /* \"#utility.yul\":9459:9525   */\n      0xffffffffffffffffffffffffffffffffffffffffffffffffffffffffffffffff\n        /* \"#utility.yul\":9448:9457   */\n      dup3\n        /* \"#utility.yul\":9429:9526   */\n      tag_126\n      jump\t// in\n    tag_244:\n        /* \"#utility.yul\":9547:9586   */\n      tag_245\n        /* \"#utility.yul\":9577:9585   */\n      dup7\n        /* \"#utility.yul\":9566:9575   */\n      dup4\n        /* \"#utility.yul\":9547:9586   */\n      tag_126\n      jump\t// in\n    tag_245:\n        /* \"#utility.yul\":9535:9586   */\n      swap6\n      pop\n        /* \"#utility.yul\":9619:9623   */\n      dup1\n        /* \"#utility.yul\":9615:9624   */\n      not\n        /* \"#utility.yul\":9608:9613   */\n      dup5\n        /* \"#utility.yul\":9604:9625   */\n      and\n        /* \"#utility.yul\":9595:9625   */\n      swap4\n      pop\n        /* \"#utility.yul\":9668:9672   */\n      dup1\n        /* \"#utility.yul\":9658:9666   */\n      dup7\n        /* \"#utility.yul\":9654:9673   */\n      and\n        /* \"#utility.yul\":9647:9652   */\n      dup5\n        /* \"#utility.yul\":9644:9674   */\n      or\n        /* \"#utility.yul\":9634:9674   */\n      swap3\n      pop\n        /* \"#utility.yul\":9363:9680   */\n      pop\n      pop\n        /* \"#utility.yul\":9287:9680   */\n      swap4\n      swap3\n      pop\n      pop\n      pop\n      jump\t// out\n        /* \"#utility.yul\":9686:9746   */\n    tag_128:\n        /* \"#utility.yul\":9714:9717   */\n      0x00\n        /* \"#utility.yul\":9735:9740   */\n      dup2\n        /* \"#utility.yul\":9728:9740   */\n      swap1\n      pop\n        /* \"#utility.yul\":9686:9746   */\n      swap2\n      swap1\n      pop\n      jump\t// out\n        /* \"#utility.yul\":9752:9894   */\n    tag_129:\n        /* \"#utility.yul\":9802:9811   */\n      0x00\n        /* \"#utility.yul\":9835:9888   */\n      tag_248\n        /* \"#utility.yul\":9853:9887   */\n      tag_249\n        /* \"#utility.yul\":9862:9886   */\n      tag_250\n        /* \"#utility.yul\":9880:9885   */\n      dup5\n        /* \"#utility.yul\":9862:9886   */\n      tag_97\n      jump\t// in\n    tag_250:\n        /* \"#utility.yul\":9853:9887   */\n      tag_128\n      jump\t// in\n    tag_249:\n        /* \"#utility.yul\":9835:9888   */\n      tag_97\n      jump\t// in\n    tag_248:\n        /* \"#utility.yul\":9822:9888   */\n      swap1\n      pop\n        /* \"#utility.yul\":9752:9894   */\n      swap2\n      swap1\n      pop\n      jump\t// out\n        /* \"#utility.yul\":9900:9975   */\n    tag_130:\n        /* \"#utility.yul\":9943:9946   */\n      0x00\n        /* \"#utility.yul\":9964:9969   */\n      dup2\n        /* \"#utility.yul\":9957:9969   */\n      swap1\n      pop\n        /* \"#utility.yul\":9900:9975   */\n      swap2\n      swap1\n      pop\n      jump\t// out\n        /* \"#utility.yul\":9981:10250   */\n    tag_131:\n        /* \"#utility.yul\":10091:10130   */\n      tag_253\n        /* \"#utility.yul\":10122:10129   */\n      dup4\n        /* \"#utility.yul\":10091:10130   */\n      tag_129\n      jump\t// in\n    tag_253:\n        /* \"#utility.yul\":10152:10243   */\n      tag_254\n        /* \"#utility.yul\":10201:10242   */\n      tag_255\n        /* \"#utility.yul\":10225:10241   */\n      dup3\n        /* \"#utility.yul\":10201:10242   */\n      tag_130\n      jump\t// in\n    tag_255:\n        /* \"#utility.yul\":10193:10199   */\n      dup5\n        /* \"#utility.yul\":10186:10190   */\n      dup5\n        /* \"#utility.yul\":10180:10191   */\n      sload\n        /* \"#utility.yul\":10152:10243   */\n      tag_127\n      jump\t// in\n    tag_254:\n        /* \"#utility.yul\":10146:10150   */\n      dup3\n        /* \"#utility.yul\":10139:10244   */\n      sstore\n        /* \"#utility.yul\":10057:10250   */\n      pop\n        /* \"#utility.yul\":9981:10250   */\n      pop\n      pop\n      pop\n      jump\t// out\n        /* \"#utility.yul\":10256:10329   */\n    tag_132:\n        /* \"#utility.yul\":10301:10304   */\n      0x00\n        /* \"#utility.yul\":10256:10329   */\n      swap1\n      jump\t// out\n        /* \"#utility.yul\":10335:10524   */\n    tag_133:\n        /* \"#utility.yul\":10412:10444   */\n      tag_258\n      tag_132\n      jump\t// in\n    tag_258:\n        /* \"#utility.yul\":10453:10518   */\n      tag_259\n        /* \"#utility.yul\":10511:10517   */\n      dup2\n        /* \"#utility.yul\":10503:10509   */\n      dup5\n        /* \"#utility.yul\":10497:10501   */\n      dup5\n        /* \"#utility.yul\":10453:10518   */\n      tag_131\n      jump\t// in\n    tag_259:\n        /* \"#utility.yul\":10388:10524   */\n      pop\n        /* \"#utility.yul\":10335:10524   */\n      pop\n      pop\n      jump\t// out\n        /* \"#utility.yul\":10530:10716   */\n    tag_134:\n        /* \"#utility.yul\":10590:10710   */\n    tag_261:\n        /* \"#utility.yul\":10607:10610   */\n      dup2\n        /* \"#utility.yul\":10600:10605   */\n      dup2\n        /* \"#utility.yul\":10597:10611   */\n      lt\n        /* \"#utility.yul\":10590:10710   */\n      iszero\n      tag_263\n      jumpi\n        /* \"#utility.yul\":10661:10700   */\n      tag_264\n        /* \"#utility.yul\":10698:10699   */\n      0x00\n        /* \"#utility.yul\":10691:10696   */\n      dup3\n        /* \"#utility.yul\":10661:10700   */\n      tag_133\n      jump\t// in\n    tag_264:\n        /* \"#utility.yul\":10634:10635   */\n      0x01\n        /* \"#utility.yul\":10627:10632   */\n      dup2\n        /* \"#utility.yul\":10623:10636   */\n      add\n        /* \"#utility.yul\":10614:10636   */\n      swap1\n      pop\n        /* \"#utility.yul\":10590:10710   */\n      jump(tag_261)\n    tag_263:\n        /* \"#utility.yul\":10530:10716   */\n      pop\n      pop\n      jump\t// out\n        /* \"#utility.yul\":10722:11265   */\n    tag_135:\n        /* \"#utility.yul\":10823:10825   */\n      0x1f\n        /* \"#utility.yul\":10818:10821   */\n      dup3\n        /* \"#utility.yul\":10815:10826   */\n      gt\n        /* \"#utility.yul\":10812:11258   */\n      iszero\n      tag_266\n      jumpi\n        /* \"#utility.yul\":10857:10895   */\n      tag_267\n        /* \"#utility.yul\":10889:10894   */\n      dup2\n        /* \"#utility.yul\":10857:10895   */\n      tag_124\n      jump\t// in\n    tag_267:\n        /* \"#utility.yul\":10941:10970   */\n      tag_268\n        /* \"#utility.yul\":10959:10969   */\n      dup5\n        /* \"#utility.yul\":10941:10970   */\n      tag_125\n      jump\t// in\n    tag_268:\n        /* \"#utility.yul\":10931:10939   */\n      dup2\n        /* \"#utility.yul\":10927:10971   */\n      add\n        /* \"#utility.yul\":11124:11126   */\n      0x20\n        /* \"#utility.yul\":11112:11122   */\n      dup6\n        /* \"#utility.yul\":11109:11127   */\n      lt\n        /* \"#utility.yul\":11106:11155   */\n      iszero\n      tag_269\n      jumpi\n        /* \"#utility.yul\":11145:11153   */\n      dup2\n        /* \"#utility.yul\":11130:11153   */\n      swap1\n      pop\n        /* \"#utility.yul\":11106:11155   */\n    tag_269:\n        /* \"#utility.yul\":11168:11248   */\n      tag_270\n        /* \"#utility.yul\":11224:11246   */\n      tag_271\n        /* \"#utility.yul\":11242:11245   */\n      dup6\n        /* \"#utility.yul\":11224:11246   */\n      tag_125\n      jump\t// in\n    tag_271:\n        /* \"#utility.yul\":11214:11222   */\n      dup4\n        /* \"#utility.yul\":11210:11247   */\n      add\n        /* \"#utility.yul\":11197:11208   */\n      dup3\n        /* \"#utility.yul\":11168:11248   */\n      tag_134\n      jump\t// in\n    tag_270:\n        /* \"#utility.yul\":10827:11258   */\n      pop\n      pop\n        /* \"#utility.yul\":10812:11258   */\n    tag_266:\n        /* \"#utility.yul\":10722:11265   */\n      pop\n      pop\n      pop\n      jump\t// out\n        /* \"#utility.yul\":11271:11388   */\n    tag_136:\n        /* \"#utility.yul\":11325:11333   */\n      0x00\n        /* \"#utility.yul\":11375:11380   */\n      dup3\n        /* \"#utility.yul\":11369:11373   */\n      dup3\n        /* \"#utility.yul\":11365:11381   */\n      shr\n        /* \"#utility.yul\":11344:11381   */\n      swap1\n      pop\n        /* \"#utility.yul\":11271:11388   */\n      swap3\n      swap2\n      pop\n      pop\n      jump\t// out\n        /* \"#utility.yul\":11394:11563   */\n    tag_137:\n        /* \"#utility.yul\":11438:11444   */\n      0x00\n        /* \"#utility.yul\":11471:11522   */\n      tag_274\n        /* \"#utility.yul\":11519:11520   */\n      0x00\n        /* \"#utility.yul\":11515:11521   */\n      not\n        /* \"#utility.yul\":11507:11512   */\n      dup5\n        /* \"#utility.yul\":11504:11505   */\n      0x08\n        /* \"#utility.yul\":11500:11513   */\n      mul\n        /* \"#utility.yul\":11471:11522   */\n      tag_136\n      jump\t// in\n    tag_274:\n        /* \"#utility.yul\":11467:11523   */\n      not\n        /* \"#utility.yul\":11552:11556   */\n      dup1\n        /* \"#utility.yul\":11546:11550   */\n      dup4\n        /* \"#utility.yul\":11542:11557   */\n      and\n        /* \"#utility.yul\":11532:11557   */\n      swap2\n      pop\n        /* \"#utility.yul\":11445:11563   */\n      pop\n        /* \"#utility.yul\":11394:11563   */\n      swap3\n      swap2\n      pop\n      pop\n      jump\t// out\n        /* \"#utility.yul\":11568:11863   */\n    tag_138:\n        /* \"#utility.yul\":11644:11648   */\n      0x00\n        /* \"#utility.yul\":11790:11819   */\n      tag_276\n        /* \"#utility.yul\":11815:11818   */\n      dup4\n        /* \"#utility.yul\":11809:11813   */\n      dup4\n        /* \"#utility.yul\":11790:11819   */\n      tag_137\n      jump\t// in\n    tag_276:\n        /* \"#utility.yul\":11782:11819   */\n      swap2\n      pop\n        /* \"#utility.yul\":11852:11855   */\n      dup3\n        /* \"#utility.yul\":11849:11850   */\n      0x02\n        /* \"#utility.yul\":11845:11856   */\n      mul\n        /* \"#utility.yul\":11839:11843   */\n      dup3\n        /* \"#utility.yul\":11836:11857   */\n      or\n        /* \"#utility.yul\":11828:11857   */\n      swap1\n      pop\n        /* \"#utility.yul\":11568:11863   */\n      swap3\n      swap2\n      pop\n      pop\n      jump\t// out\n        /* \"#utility.yul\":11868:13263   */\n    tag_77:\n        /* \"#utility.yul\":11985:12022   */\n      tag_278\n        /* \"#utility.yul\":12018:12021   */\n      dup3\n        /* \"#utility.yul\":11985:12022   */\n      tag_101\n      jump\t// in\n    tag_278:\n        /* \"#utility.yul\":12087:12105   */\n      0xffffffffffffffff\n        /* \"#utility.yul\":12079:12085   */\n      dup2\n        /* \"#utility.yul\":12076:12106   */\n      gt\n        /* \"#utility.yul\":12073:12129   */\n      iszero\n      tag_279\n      jumpi\n        /* \"#utility.yul\":12109:12127   */\n      tag_280\n      tag_108\n      jump\t// in\n    tag_280:\n        /* \"#utility.yul\":12073:12129   */\n    tag_279:\n        /* \"#utility.yul\":12153:12191   */\n      tag_281\n        /* \"#utility.yul\":12185:12189   */\n      dup3\n        /* \"#utility.yul\":12179:12190   */\n      sload\n        /* \"#utility.yul\":12153:12191   */\n      tag_67\n      jump\t// in\n    tag_281:\n        /* \"#utility.yul\":12238:12305   */\n      tag_282\n        /* \"#utility.yul\":12298:12304   */\n      dup3\n        /* \"#utility.yul\":12290:12296   */\n      dup3\n        /* \"#utility.yul\":12284:12288   */\n      dup6\n        /* \"#utility.yul\":12238:12305   */\n      tag_135\n      jump\t// in\n    tag_282:\n        /* \"#utility.yul\":12332:12333   */\n      0x00\n        /* \"#utility.yul\":12356:12360   */\n      0x20\n        /* \"#utility.yul\":12343:12360   */\n      swap1\n      pop\n        /* \"#utility.yul\":12388:12390   */\n      0x1f\n        /* \"#utility.yul\":12380:12386   */\n      dup4\n        /* \"#utility.yul\":12377:12391   */\n      gt\n        /* \"#utility.yul\":12405:12406   */\n      0x01\n        /* \"#utility.yul\":12400:13018   */\n      dup2\n      eq\n      tag_284\n      jumpi\n        /* \"#utility.yul\":13062:13063   */\n      0x00\n        /* \"#utility.yul\":13079:13085   */\n      dup5\n        /* \"#utility.yul\":13076:13153   */\n      iszero\n      tag_285\n      jumpi\n        /* \"#utility.yul\":13128:13137   */\n      dup3\n        /* \"#utility.yul\":13123:13126   */\n      dup8\n        /* \"#utility.yul\":13119:13138   */\n      add\n        /* \"#utility.yul\":13113:13139   */\n      mload\n        /* \"#utility.yul\":13104:13139   */\n      swap1\n      pop\n        /* \"#utility.yul\":13076:13153   */\n    tag_285:\n        /* \"#utility.yul\":13179:13246   */\n      tag_286\n        /* \"#utility.yul\":13239:13245   */\n      dup6\n        /* \"#utility.yul\":13232:13237   */\n      dup3\n        /* \"#utility.yul\":13179:13246   */\n      tag_138\n      jump\t// in\n    tag_286:\n        /* \"#utility.yul\":13173:13177   */\n      dup7\n        /* \"#utility.yul\":13166:13247   */\n      sstore\n        /* \"#utility.yul\":13035:13257   */\n      pop\n        /* \"#utility.yul\":12370:13257   */\n      jump(tag_283)\n        /* \"#utility.yul\":12400:13018   */\n    tag_284:\n        /* \"#utility.yul\":12452:12456   */\n      0x1f\n        /* \"#utility.yul\":12448:12457   */\n      not\n        /* \"#utility.yul\":12440:12446   */\n      dup5\n        /* \"#utility.yul\":12436:12458   */\n      and\n        /* \"#utility.yul\":12486:12523   */\n      tag_287\n        /* \"#utility.yul\":12518:12522   */\n      dup7\n        /* \"#utility.yul\":12486:12523   */\n      tag_124\n      jump\t// in\n    tag_287:\n        /* \"#utility.yul\":12545:12546   */\n      0x00\n        /* \"#utility.yul\":12559:12767   */\n    tag_288:\n        /* \"#utility.yul\":12573:12580   */\n      dup3\n        /* \"#utility.yul\":12570:12571   */\n      dup2\n        /* \"#utility.yul\":12567:12581   */\n      lt\n        /* \"#utility.yul\":12559:12767   */\n      iszero\n      tag_290\n      jumpi\n        /* \"#utility.yul\":12652:12661   */\n      dup5\n        /* \"#utility.yul\":12647:12650   */\n      dup10\n        /* \"#utility.yul\":12643:12662   */\n      add\n        /* \"#utility.yul\":12637:12663   */\n      mload\n        /* \"#utility.yul\":12629:12635   */\n      dup3\n        /* \"#utility.yul\":12622:12664   */\n      sstore\n        /* \"#utility.yul\":12703:12704   */\n      0x01\n        /* \"#utility.yul\":12695:12701   */\n      dup3\n        /* \"#utility.yul\":12691:12705   */\n      add\n        /* \"#utility.yul\":12681:12705   */\n      swap2\n      pop\n        /* \"#utility.yul\":12750:12752   */\n      0x20\n        /* \"#utility.yul\":12739:12748   */\n      dup6\n        /* \"#utility.yul\":12735:12753   */\n      add\n        /* \"#utility.yul\":12722:12753   */\n      swap5\n      pop\n        /* \"#utility.yul\":12596:12600   */\n      0x20\n        /* \"#utility.yul\":12593:12594   */\n      dup2\n        /* \"#utility.yul\":12589:12601   */\n      add\n        /* \"#utility.yul\":12584:12601   */\n      swap1\n      pop\n        /* \"#utility.yul\":12559:12767   */\n      jump(tag_288)\n    tag_290:\n        /* \"#utility.yul\":12795:12801   */\n      dup7\n        /* \"#utility.yul\":12786:12793   */\n      dup4\n        /* \"#utility.yul\":12783:12802   */\n      lt\n        /* \"#utility.yul\":12780:12959   */\n      iszero\n      tag_291\n      jumpi\n        /* \"#utility.yul\":12853:12862   */\n      dup5\n        /* \"#utility.yul\":12848:12851   */\n      dup10\n        /* \"#utility.yul\":12844:12863   */\n      add\n        /* \"#utility.yul\":12838:12864   */\n      mload\n        /* \"#utility.yul\":12896:12944   */\n      tag_292\n        /* \"#utility.yul\":12938:12942   */\n      0x1f\n        /* \"#utility.yul\":12930:12936   */\n      dup10\n        /* \"#utility.yul\":12926:12943   */\n      and\n        /* \"#utility.yul\":12915:12924   */\n      dup3\n        /* \"#utility.yul\":12896:12944   */\n      tag_137\n      jump\t// in\n    tag_292:\n        /* \"#utility.yul\":12888:12894   */\n      dup4\n        /* \"#utility.yul\":12881:12945   */\n      sstore\n        /* \"#utility.yul\":12803:12959   */\n      pop\n        /* \"#utility.yul\":12780:12959   */\n    tag_291:\n        /* \"#utility.yul\":13005:13006   */\n      0x01\n        /* \"#utility.yul\":13001:13002   */\n      0x02\n        /* \"#utility.yul\":12993:12999   */\n      dup9\n        /* \"#utility.yul\":12989:13003   */\n      mul\n        /* \"#utility.yul\":12985:13007   */\n      add\n        /* \"#utility.yul\":12979:12983   */\n      dup9\n        /* \"#utility.yul\":12972:13008   */\n      sstore\n        /* \"#utility.yul\":12407:13018   */\n      pop\n      pop\n      pop\n        /* \"#utility.yul\":12370:13257   */\n    tag_283:\n      pop\n        /* \"#utility.yul\":11960:13263   */\n      pop\n      pop\n      pop\n        /* \"#utility.yul\":11868:13263   */\n      pop\n      pop\n      jump\t// out\n\n    auxdata: 0xa2646970667358221220200bd17b768bc300cc7aa334c97d67170f09241c8215e9a8f3fe14357bd0a74b64736f6c63430008120033\n}\n",
				"bytecode": {
					"linkReferences": {},
					"object": "608060405234801561001057600080fd5b50610f8b806100206000396000f3fe608060405234801561001057600080fd5b506004361061009e5760003560e01c806385e8e7a71161006657806385e8e7a71461014657806396ffa49914610164578063a3ec138d14610182578063e8685ba1146101b5578063f544bed8146101d35761009e565b80630121b93f146100a35780630d15fd77146100bf5780633477ee2e146100dd578063462e91ec1461010e5780634b2c51111461012a575b600080fd5b6100bd60048036038101906100b891906107fe565b6101ef565b005b6100c761039a565b6040516100d4919061083a565b60405180910390f35b6100f760048036038101906100f291906107fe565b6103a0565b6040516101059291906108e5565b60405180910390f35b61012860048036038101906101239190610a4a565b61045c565b005b610144600480360381019061013f9190610af1565b61051a565b005b61014e6105d0565b60405161015b9190610b1e565b60405180910390f35b61016c61065e565b6040516101799190610b4f565b60405180910390f35b61019c60048036038101906101979190610af1565b610682565b6040516101ac9493929190610b85565b60405180910390f35b6101bd610754565b6040516101ca919061083a565b60405180910390f35b6101ed60048036038101906101e89190610a4a565b610761565b005b600360003373ffffffffffffffffffffffffffffffffffffffff1673ffffffffffffffffffffffffffffffffffffffff16815260200190815260200160002060010160019054906101000a900460ff161561024957600080fd5b600360003373ffffffffffffffffffffffffffffffffffffffff1673ffffffffffffffffffffffffffffffffffffffff16815260200190815260200160002060010160009054906101000a900460ff166102a257600080fd5b80600360003373ffffffffffffffffffffffffffffffffffffffff1673ffffffffffffffffffffffffffffffffffffffff168152602001908152602001600020600201819055506001600360003373ffffffffffffffffffffffffffffffffffffffff1673ffffffffffffffffffffffffffffffffffffffff16815260200190815260200160002060010160016101000a81548160ff0219169083151502179055506004818154811061035857610357610bd1565b5b9060005260206000209060020201600101600081548092919061037a90610c2f565b91905055506002600081548092919061039290610c2f565b919050555050565b60025481565b600481815481106103b057600080fd5b90600052602060002090600202016000915090508060000180546103d390610ca6565b80601f01602080910402602001604051908101604052809291908181526020018280546103ff90610ca6565b801561044c5780601f106104215761010080835404028352916020019161044c565b820191906000526020600020905b81548152906001019060200180831161042f57829003601f168201915b5050505050908060010154905082565b60008054906101000a900473ffffffffffffffffffffffffffffffffffffffff1673ffffffffffffffffffffffffffffffffffffffff163373ffffffffffffffffffffffffffffffffffffffff16146104b457600080fd5b6004604051806040016040528083815260200160008152509080600181540180825580915050600190039060005260206000209060020201600090919091909150600082015181600001908161050a9190610e83565b5060208201518160010155505050565b60008054906101000a900473ffffffffffffffffffffffffffffffffffffffff1673ffffffffffffffffffffffffffffffffffffffff163373ffffffffffffffffffffffffffffffffffffffff161461057257600080fd5b6001600360008373ffffffffffffffffffffffffffffffffffffffff1673ffffffffffffffffffffffffffffffffffffffff16815260200190815260200160002060010160006101000a81548160ff02191690831515021790555050565b600180546105dd90610ca6565b80601f016020809104026020016040519081016040528092919081815260200182805461060990610ca6565b80156106565780601f1061062b57610100808354040283529160200191610656565b820191906000526020600020905b81548152906001019060200180831161063957829003601f168201915b505050505081565b60008054906101000a900473ffffffffffffffffffffffffffffffffffffffff1681565b60036020528060005260406000206000915090508060000180546106a590610ca6565b80601f01602080910402602001604051908101604052809291908181526020018280546106d190610ca6565b801561071e5780601f106106f35761010080835404028352916020019161071e565b820191906000526020600020905b81548152906001019060200180831161070157829003601f168201915b5050505050908060010160009054906101000a900460ff16908060010160019054906101000a900460ff16908060020154905084565b6000600480549050905090565b336000806101000a81548173ffffffffffffffffffffffffffffffffffffffff021916908373ffffffffffffffffffffffffffffffffffffffff16021790555080600190816107b09190610e83565b5050565b6000604051905090565b600080fd5b600080fd5b6000819050919050565b6107db816107c8565b81146107e657600080fd5b50565b6000813590506107f8816107d2565b92915050565b600060208284031215610814576108136107be565b5b6000610822848285016107e9565b91505092915050565b610834816107c8565b82525050565b600060208201905061084f600083018461082b565b92915050565b600081519050919050565b600082825260208201905092915050565b60005b8381101561088f578082015181840152602081019050610874565b60008484015250505050565b6000601f19601f8301169050919050565b60006108b782610855565b6108c18185610860565b93506108d1818560208601610871565b6108da8161089b565b840191505092915050565b600060408201905081810360008301526108ff81856108ac565b905061090e602083018461082b565b9392505050565b600080fd5b600080fd5b7f4e487b7100000000000000000000000000000000000000000000000000000000600052604160045260246000fd5b6109578261089b565b810181811067ffffffffffffffff821117156109765761097561091f565b5b80604052505050565b60006109896107b4565b9050610995828261094e565b919050565b600067ffffffffffffffff8211156109b5576109b461091f565b5b6109be8261089b565b9050602081019050919050565b82818337600083830152505050565b60006109ed6109e88461099a565b61097f565b905082815260208101848484011115610a0957610a0861091a565b5b610a148482856109cb565b509392505050565b600082601f830112610a3157610a30610915565b5b8135610a418482602086016109da565b91505092915050565b600060208284031215610a6057610a5f6107be565b5b600082013567ffffffffffffffff811115610a7e57610a7d6107c3565b5b610a8a84828501610a1c565b91505092915050565b600073ffffffffffffffffffffffffffffffffffffffff82169050919050565b6000610abe82610a93565b9050919050565b610ace81610ab3565b8114610ad957600080fd5b50565b600081359050610aeb81610ac5565b92915050565b600060208284031215610b0757610b066107be565b5b6000610b1584828501610adc565b91505092915050565b60006020820190508181036000830152610b3881846108ac565b905092915050565b610b4981610ab3565b82525050565b6000602082019050610b646000830184610b40565b92915050565b60008115159050919050565b610b7f81610b6a565b82525050565b60006080820190508181036000830152610b9f81876108ac565b9050610bae6020830186610b76565b610bbb6040830185610b76565b610bc8606083018461082b565b95945050505050565b7f4e487b7100000000000000000000000000000000000000000000000000000000600052603260045260246000fd5b7f4e487b7100000000000000000000000000000000000000000000000000000000600052601160045260246000fd5b6000610c3a826107c8565b91507fffffffffffffffffffffffffffffffffffffffffffffffffffffffffffffffff8203610c6c57610c6b610c00565b5b600182019050919050565b7f4e487b7100000000000000000000000000000000000000000000000000000000600052602260045260246000fd5b60006002820490506001821680610cbe57607f821691505b602082108103610cd157610cd0610c77565b5b50919050565b60008190508160005260206000209050919050565b60006020601f8301049050919050565b600082821b905092915050565b600060088302610d397fffffffffffffffffffffffffffffffffffffffffffffffffffffffffffffffff82610cfc565b610d438683610cfc565b95508019841693508086168417925050509392505050565b6000819050919050565b6000610d80610d7b610d76846107c8565b610d5b565b6107c8565b9050919050565b6000819050919050565b610d9a83610d65565b610dae610da682610d87565b848454610d09565b825550505050565b600090565b610dc3610db6565b610dce818484610d91565b505050565b5b81811015610df257610de7600082610dbb565b600181019050610dd4565b5050565b601f821115610e3757610e0881610cd7565b610e1184610cec565b81016020851015610e20578190505b610e34610e2c85610cec565b830182610dd3565b50505b505050565b600082821c905092915050565b6000610e5a60001984600802610e3c565b1980831691505092915050565b6000610e738383610e49565b9150826002028217905092915050565b610e8c82610855565b67ffffffffffffffff811115610ea557610ea461091f565b5b610eaf8254610ca6565b610eba828285610df6565b600060209050601f831160018114610eed5760008415610edb578287015190505b610ee58582610e67565b865550610f4d565b601f198416610efb86610cd7565b60005b82811015610f2357848901518255600182019150602085019450602081019050610efe565b86831015610f405784890151610f3c601f891682610e49565b8355505b6001600288020188555050505b50505050505056fea2646970667358221220200bd17b768bc300cc7aa334c97d67170f09241c8215e9a8f3fe14357bd0a74b64736f6c63430008120033",
					"opcodes": "PUSH1 0x80 PUSH1 0x40 MSTORE CALLVALUE DUP1 ISZERO PUSH2 0x10 JUMPI PUSH1 0x0 DUP1 REVERT JUMPDEST POP PUSH2 0xF8B DUP1 PUSH2 0x20 PUSH1 0x0 CODECOPY PUSH1 0x0 RETURN INVALID PUSH1 0x80 PUSH1 0x40 MSTORE CALLVALUE DUP1 ISZERO PUSH2 0x10 JUMPI PUSH1 0x0 DUP1 REVERT JUMPDEST POP PUSH1 0x4 CALLDATASIZE LT PUSH2 0x9E JUMPI PUSH1 0x0 CALLDATALOAD PUSH1 0xE0 SHR DUP1 PUSH4 0x85E8E7A7 GT PUSH2 0x66 JUMPI DUP1 PUSH4 0x85E8E7A7 EQ PUSH2 0x146 JUMPI DUP1 PUSH4 0x96FFA499 EQ PUSH2 0x164 JUMPI DUP1 PUSH4 0xA3EC138D EQ PUSH2 0x182 JUMPI DUP1 PUSH4 0xE8685BA1 EQ PUSH2 0x1B5 JUMPI DUP1 PUSH4 0xF544BED8 EQ PUSH2 0x1D3 JUMPI PUSH2 0x9E JUMP JUMPDEST DUP1 PUSH4 0x121B93F EQ PUSH2 0xA3 JUMPI DUP1 PUSH4 0xD15FD77 EQ PUSH2 0xBF JUMPI DUP1 PUSH4 0x3477EE2E EQ PUSH2 0xDD JUMPI DUP1 PUSH4 0x462E91EC EQ PUSH2 0x10E JUMPI DUP1 PUSH4 0x4B2C5111 EQ PUSH2 0x12A JUMPI JUMPDEST PUSH1 0x0 DUP1 REVERT JUMPDEST PUSH2 0xBD PUSH1 0x4 DUP1 CALLDATASIZE SUB DUP2 ADD SWAP1 PUSH2 0xB8 SWAP2 SWAP1 PUSH2 0x7FE JUMP JUMPDEST PUSH2 0x1EF JUMP JUMPDEST STOP JUMPDEST PUSH2 0xC7 PUSH2 0x39A JUMP JUMPDEST PUSH1 0x40 MLOAD PUSH2 0xD4 SWAP2 SWAP1 PUSH2 0x83A JUMP JUMPDEST PUSH1 0x40 MLOAD DUP1 SWAP2 SUB SWAP1 RETURN JUMPDEST PUSH2 0xF7 PUSH1 0x4 DUP1 CALLDATASIZE SUB DUP2 ADD SWAP1 PUSH2 0xF2 SWAP2 SWAP1 PUSH2 0x7FE JUMP JUMPDEST PUSH2 0x3A0 JUMP JUMPDEST PUSH1 0x40 MLOAD PUSH2 0x105 SWAP3 SWAP2 SWAP1 PUSH2 0x8E5 JUMP JUMPDEST PUSH1 0x40 MLOAD DUP1 SWAP2 SUB SWAP1 RETURN JUMPDEST PUSH2 0x128 PUSH1 0x4 DUP1 CALLDATASIZE SUB DUP2 ADD SWAP1 PUSH2 0x123 SWAP2 SWAP1 PUSH2 0xA4A JUMP JUMPDEST PUSH2 0x45C JUMP JUMPDEST STOP JUMPDEST PUSH2 0x144 PUSH1 0x4 DUP1 CALLDATASIZE SUB DUP2 ADD SWAP1 PUSH2 0x13F SWAP2 SWAP1 PUSH2 0xAF1 JUMP JUMPDEST PUSH2 0x51A JUMP JUMPDEST STOP JUMPDEST PUSH2 0x14E PUSH2 0x5D0 JUMP JUMPDEST PUSH1 0x40 MLOAD PUSH2 0x15B SWAP2 SWAP1 PUSH2 0xB1E JUMP JUMPDEST PUSH1 0x40 MLOAD DUP1 SWAP2 SUB SWAP1 RETURN JUMPDEST PUSH2 0x16C PUSH2 0x65E JUMP JUMPDEST PUSH1 0x40 MLOAD PUSH2 0x179 SWAP2 SWAP1 PUSH2 0xB4F JUMP JUMPDEST PUSH1 0x40 MLOAD DUP1 SWAP2 SUB SWAP1 RETURN JUMPDEST PUSH2 0x19C PUSH1 0x4 DUP1 CALLDATASIZE SUB DUP2 ADD SWAP1 PUSH2 0x197 SWAP2 SWAP1 PUSH2 0xAF1 JUMP JUMPDEST PUSH2 0x682 JUMP JUMPDEST PUSH1 0x40 MLOAD PUSH2 0x1AC SWAP5 SWAP4 SWAP3 SWAP2 SWAP1 PUSH2 0xB85 JUMP JUMPDEST PUSH1 0x40 MLOAD DUP1 SWAP2 SUB SWAP1 RETURN JUMPDEST PUSH2 0x1BD PUSH2 0x754 JUMP JUMPDEST PUSH1 0x40 MLOAD PUSH2 0x1CA SWAP2 SWAP1 PUSH2 0x83A JUMP JUMPDEST PUSH1 0x40 MLOAD DUP1 SWAP2 SUB SWAP1 RETURN JUMPDEST PUSH2 0x1ED PUSH1 0x4 DUP1 CALLDATASIZE SUB DUP2 ADD SWAP1 PUSH2 0x1E8 SWAP2 SWAP1 PUSH2 0xA4A JUMP JUMPDEST PUSH2 0x761 JUMP JUMPDEST STOP JUMPDEST PUSH1 0x3 PUSH1 0x0 CALLER PUSH20 0xFFFFFFFFFFFFFFFFFFFFFFFFFFFFFFFFFFFFFFFF AND PUSH20 0xFFFFFFFFFFFFFFFFFFFFFFFFFFFFFFFFFFFFFFFF AND DUP2 MSTORE PUSH1 0x20 ADD SWAP1 DUP2 MSTORE PUSH1 0x20 ADD PUSH1 0x0 KECCAK256 PUSH1 0x1 ADD PUSH1 0x1 SWAP1 SLOAD SWAP1 PUSH2 0x100 EXP SWAP1 DIV PUSH1 0xFF AND ISZERO PUSH2 0x249 JUMPI PUSH1 0x0 DUP1 REVERT JUMPDEST PUSH1 0x3 PUSH1 0x0 CALLER PUSH20 0xFFFFFFFFFFFFFFFFFFFFFFFFFFFFFFFFFFFFFFFF AND PUSH20 0xFFFFFFFFFFFFFFFFFFFFFFFFFFFFFFFFFFFFFFFF AND DUP2 MSTORE PUSH1 0x20 ADD SWAP1 DUP2 MSTORE PUSH1 0x20 ADD PUSH1 0x0 KECCAK256 PUSH1 0x1 ADD PUSH1 0x0 SWAP1 SLOAD SWAP1 PUSH2 0x100 EXP SWAP1 DIV PUSH1 0xFF AND PUSH2 0x2A2 JUMPI PUSH1 0x0 DUP1 REVERT JUMPDEST DUP1 PUSH1 0x3 PUSH1 0x0 CALLER PUSH20 0xFFFFFFFFFFFFFFFFFFFFFFFFFFFFFFFFFFFFFFFF AND PUSH20 0xFFFFFFFFFFFFFFFFFFFFFFFFFFFFFFFFFFFFFFFF AND DUP2 MSTORE PUSH1 0x20 ADD SWAP1 DUP2 MSTORE PUSH1 0x20 ADD PUSH1 0x0 KECCAK256 PUSH1 0x2 ADD DUP2 SWAP1 SSTORE POP PUSH1 0x1 PUSH1 0x3 PUSH1 0x0 CALLER PUSH20 0xFFFFFFFFFFFFFFFFFFFFFFFFFFFFFFFFFFFFFFFF AND PUSH20 0xFFFFFFFFFFFFFFFFFFFFFFFFFFFFFFFFFFFFFFFF AND DUP2 MSTORE PUSH1 0x20 ADD SWAP1 DUP2 MSTORE PUSH1 0x20 ADD PUSH1 0x0 KECCAK256 PUSH1 0x1 ADD PUSH1 0x1 PUSH2 0x100 EXP DUP2 SLOAD DUP2 PUSH1 0xFF MUL NOT AND SWAP1 DUP4 ISZERO ISZERO MUL OR SWAP1 SSTORE POP PUSH1 0x4 DUP2 DUP2 SLOAD DUP2 LT PUSH2 0x358 JUMPI PUSH2 0x357 PUSH2 0xBD1 JUMP JUMPDEST JUMPDEST SWAP1 PUSH1 0x0 MSTORE PUSH1 0x20 PUSH1 0x0 KECCAK256 SWAP1 PUSH1 0x2 MUL ADD PUSH1 0x1 ADD PUSH1 0x0 DUP2 SLOAD DUP1 SWAP3 SWAP2 SWAP1 PUSH2 0x37A SWAP1 PUSH2 0xC2F JUMP JUMPDEST SWAP2 SWAP1 POP SSTORE POP PUSH1 0x2 PUSH1 0x0 DUP2 SLOAD DUP1 SWAP3 SWAP2 SWAP1 PUSH2 0x392 SWAP1 PUSH2 0xC2F JUMP JUMPDEST SWAP2 SWAP1 POP SSTORE POP POP JUMP JUMPDEST PUSH1 0x2 SLOAD DUP2 JUMP JUMPDEST PUSH1 0x4 DUP2 DUP2 SLOAD DUP2 LT PUSH2 0x3B0 JUMPI PUSH1 0x0 DUP1 REVERT JUMPDEST SWAP1 PUSH1 0x0 MSTORE PUSH1 0x20 PUSH1 0x0 KECCAK256 SWAP1 PUSH1 0x2 MUL ADD PUSH1 0x0 SWAP2 POP SWAP1 POP DUP1 PUSH1 0x0 ADD DUP1 SLOAD PUSH2 0x3D3 SWAP1 PUSH2 0xCA6 JUMP JUMPDEST DUP1 PUSH1 0x1F ADD PUSH1 0x20 DUP1 SWAP2 DIV MUL PUSH1 0x20 ADD PUSH1 0x40 MLOAD SWAP1 DUP2 ADD PUSH1 0x40 MSTORE DUP1 SWAP3 SWAP2 SWAP1 DUP2 DUP2 MSTORE PUSH1 0x20 ADD DUP3 DUP1 SLOAD PUSH2 0x3FF SWAP1 PUSH2 0xCA6 JUMP JUMPDEST DUP1 ISZERO PUSH2 0x44C JUMPI DUP1 PUSH1 0x1F LT PUSH2 0x421 JUMPI PUSH2 0x100 DUP1 DUP4 SLOAD DIV MUL DUP4 MSTORE SWAP2 PUSH1 0x20 ADD SWAP2 PUSH2 0x44C JUMP JUMPDEST DUP3 ADD SWAP2 SWAP1 PUSH1 0x0 MSTORE PUSH1 0x20 PUSH1 0x0 KECCAK256 SWAP1 JUMPDEST DUP2 SLOAD DUP2 MSTORE SWAP1 PUSH1 0x1 ADD SWAP1 PUSH1 0x20 ADD DUP1 DUP4 GT PUSH2 0x42F JUMPI DUP3 SWAP1 SUB PUSH1 0x1F AND DUP3 ADD SWAP2 JUMPDEST POP POP POP POP POP SWAP1 DUP1 PUSH1 0x1 ADD SLOAD SWAP1 POP DUP3 JUMP JUMPDEST PUSH1 0x0 DUP1 SLOAD SWAP1 PUSH2 0x100 EXP SWAP1 DIV PUSH20 0xFFFFFFFFFFFFFFFFFFFFFFFFFFFFFFFFFFFFFFFF AND PUSH20 0xFFFFFFFFFFFFFFFFFFFFFFFFFFFFFFFFFFFFFFFF AND CALLER PUSH20 0xFFFFFFFFFFFFFFFFFFFFFFFFFFFFFFFFFFFFFFFF AND EQ PUSH2 0x4B4 JUMPI PUSH1 0x0 DUP1 REVERT JUMPDEST PUSH1 0x4 PUSH1 0x40 MLOAD DUP1 PUSH1 0x40 ADD PUSH1 0x40 MSTORE DUP1 DUP4 DUP2 MSTORE PUSH1 0x20 ADD PUSH1 0x0 DUP2 MSTORE POP SWAP1 DUP1 PUSH1 0x1 DUP2 SLOAD ADD DUP1 DUP3 SSTORE DUP1 SWAP2 POP POP PUSH1 0x1 SWAP1 SUB SWAP1 PUSH1 0x0 MSTORE PUSH1 0x20 PUSH1 0x0 KECCAK256 SWAP1 PUSH1 0x2 MUL ADD PUSH1 0x0 SWAP1 SWAP2 SWAP1 SWAP2 SWAP1 SWAP2 POP PUSH1 0x0 DUP3 ADD MLOAD DUP2 PUSH1 0x0 ADD SWAP1 DUP2 PUSH2 0x50A SWAP2 SWAP1 PUSH2 0xE83 JUMP JUMPDEST POP PUSH1 0x20 DUP3 ADD MLOAD DUP2 PUSH1 0x1 ADD SSTORE POP POP POP JUMP JUMPDEST PUSH1 0x0 DUP1 SLOAD SWAP1 PUSH2 0x100 EXP SWAP1 DIV PUSH20 0xFFFFFFFFFFFFFFFFFFFFFFFFFFFFFFFFFFFFFFFF AND PUSH20 0xFFFFFFFFFFFFFFFFFFFFFFFFFFFFFFFFFFFFFFFF AND CALLER PUSH20 0xFFFFFFFFFFFFFFFFFFFFFFFFFFFFFFFFFFFFFFFF AND EQ PUSH2 0x572 JUMPI PUSH1 0x0 DUP1 REVERT JUMPDEST PUSH1 0x1 PUSH1 0x3 PUSH1 0x0 DUP4 PUSH20 0xFFFFFFFFFFFFFFFFFFFFFFFFFFFFFFFFFFFFFFFF AND PUSH20 0xFFFFFFFFFFFFFFFFFFFFFFFFFFFFFFFFFFFFFFFF AND DUP2 MSTORE PUSH1 0x20 ADD SWAP1 DUP2 MSTORE PUSH1 0x20 ADD PUSH1 0x0 KECCAK256 PUSH1 0x1 ADD PUSH1 0x0 PUSH2 0x100 EXP DUP2 SLOAD DUP2 PUSH1 0xFF MUL NOT AND SWAP1 DUP4 ISZERO ISZERO MUL OR SWAP1 SSTORE POP POP JUMP JUMPDEST PUSH1 0x1 DUP1 SLOAD PUSH2 0x5DD SWAP1 PUSH2 0xCA6 JUMP JUMPDEST DUP1 PUSH1 0x1F ADD PUSH1 0x20 DUP1 SWAP2 DIV MUL PUSH1 0x20 ADD PUSH1 0x40 MLOAD SWAP1 DUP2 ADD PUSH1 0x40 MSTORE DUP1 SWAP3 SWAP2 SWAP1 DUP2 DUP2 MSTORE PUSH1 0x20 ADD DUP3 DUP1 SLOAD PUSH2 0x609 SWAP1 PUSH2 0xCA6 JUMP JUMPDEST DUP1 ISZERO PUSH2 0x656 JUMPI DUP1 PUSH1 0x1F LT PUSH2 0x62B JUMPI PUSH2 0x100 DUP1 DUP4 SLOAD DIV MUL DUP4 MSTORE SWAP2 PUSH1 0x20 ADD SWAP2 PUSH2 0x656 JUMP JUMPDEST DUP3 ADD SWAP2 SWAP1 PUSH1 0x0 MSTORE PUSH1 0x20 PUSH1 0x0 KECCAK256 SWAP1 JUMPDEST DUP2 SLOAD DUP2 MSTORE SWAP1 PUSH1 0x1 ADD SWAP1 PUSH1 0x20 ADD DUP1 DUP4 GT PUSH2 0x639 JUMPI DUP3 SWAP1 SUB PUSH1 0x1F AND DUP3 ADD SWAP2 JUMPDEST POP POP POP POP POP DUP2 JUMP JUMPDEST PUSH1 0x0 DUP1 SLOAD SWAP1 PUSH2 0x100 EXP SWAP1 DIV PUSH20 0xFFFFFFFFFFFFFFFFFFFFFFFFFFFFFFFFFFFFFFFF AND DUP2 JUMP JUMPDEST PUSH1 0x3 PUSH1 0x20 MSTORE DUP1 PUSH1 0x0 MSTORE PUSH1 0x40 PUSH1 0x0 KECCAK256 PUSH1 0x0 SWAP2 POP SWAP1 POP DUP1 PUSH1 0x0 ADD DUP1 SLOAD PUSH2 0x6A5 SWAP1 PUSH2 0xCA6 JUMP JUMPDEST DUP1 PUSH1 0x1F ADD PUSH1 0x20 DUP1 SWAP2 DIV MUL PUSH1 0x20 ADD PUSH1 0x40 MLOAD SWAP1 DUP2 ADD PUSH1 0x40 MSTORE DUP1 SWAP3 SWAP2 SWAP1 DUP2 DUP2 MSTORE PUSH1 0x20 ADD DUP3 DUP1 SLOAD PUSH2 0x6D1 SWAP1 PUSH2 0xCA6 JUMP JUMPDEST DUP1 ISZERO PUSH2 0x71E JUMPI DUP1 PUSH1 0x1F LT PUSH2 0x6F3 JUMPI PUSH2 0x100 DUP1 DUP4 SLOAD DIV MUL DUP4 MSTORE SWAP2 PUSH1 0x20 ADD SWAP2 PUSH2 0x71E JUMP JUMPDEST DUP3 ADD SWAP2 SWAP1 PUSH1 0x0 MSTORE PUSH1 0x20 PUSH1 0x0 KECCAK256 SWAP1 JUMPDEST DUP2 SLOAD DUP2 MSTORE SWAP1 PUSH1 0x1 ADD SWAP1 PUSH1 0x20 ADD DUP1 DUP4 GT PUSH2 0x701 JUMPI DUP3 SWAP1 SUB PUSH1 0x1F AND DUP3 ADD SWAP2 JUMPDEST POP POP POP POP POP SWAP1 DUP1 PUSH1 0x1 ADD PUSH1 0x0 SWAP1 SLOAD SWAP1 PUSH2 0x100 EXP SWAP1 DIV PUSH1 0xFF AND SWAP1 DUP1 PUSH1 0x1 ADD PUSH1 0x1 SWAP1 SLOAD SWAP1 PUSH2 0x100 EXP SWAP1 DIV PUSH1 0xFF AND SWAP1 DUP1 PUSH1 0x2 ADD SLOAD SWAP1 POP DUP5 JUMP JUMPDEST PUSH1 0x0 PUSH1 0x4 DUP1 SLOAD SWAP1 POP SWAP1 POP SWAP1 JUMP JUMPDEST CALLER PUSH1 0x0 DUP1 PUSH2 0x100 EXP DUP2 SLOAD DUP2 PUSH20 0xFFFFFFFFFFFFFFFFFFFFFFFFFFFFFFFFFFFFFFFF MUL NOT AND SWAP1 DUP4 PUSH20 0xFFFFFFFFFFFFFFFFFFFFFFFFFFFFFFFFFFFFFFFF AND MUL OR SWAP1 SSTORE POP DUP1 PUSH1 0x1 SWAP1 DUP2 PUSH2 0x7B0 SWAP2 SWAP1 PUSH2 0xE83 JUMP JUMPDEST POP POP JUMP JUMPDEST PUSH1 0x0 PUSH1 0x40 MLOAD SWAP1 POP SWAP1 JUMP JUMPDEST PUSH1 0x0 DUP1 REVERT JUMPDEST PUSH1 0x0 DUP1 REVERT JUMPDEST PUSH1 0x0 DUP2 SWAP1 POP SWAP2 SWAP1 POP JUMP JUMPDEST PUSH2 0x7DB DUP2 PUSH2 0x7C8 JUMP JUMPDEST DUP2 EQ PUSH2 0x7E6 JUMPI PUSH1 0x0 DUP1 REVERT JUMPDEST POP JUMP JUMPDEST PUSH1 0x0 DUP2 CALLDATALOAD SWAP1 POP PUSH2 0x7F8 DUP2 PUSH2 0x7D2 JUMP JUMPDEST SWAP3 SWAP2 POP POP JUMP JUMPDEST PUSH1 0x0 PUSH1 0x20 DUP3 DUP5 SUB SLT ISZERO PUSH2 0x814 JUMPI PUSH2 0x813 PUSH2 0x7BE JUMP JUMPDEST JUMPDEST PUSH1 0x0 PUSH2 0x822 DUP5 DUP3 DUP6 ADD PUSH2 0x7E9 JUMP JUMPDEST SWAP2 POP POP SWAP3 SWAP2 POP POP JUMP JUMPDEST PUSH2 0x834 DUP2 PUSH2 0x7C8 JUMP JUMPDEST DUP3 MSTORE POP POP JUMP JUMPDEST PUSH1 0x0 PUSH1 0x20 DUP3 ADD SWAP1 POP PUSH2 0x84F PUSH1 0x0 DUP4 ADD DUP5 PUSH2 0x82B JUMP JUMPDEST SWAP3 SWAP2 POP POP JUMP JUMPDEST PUSH1 0x0 DUP2 MLOAD SWAP1 POP SWAP2 SWAP1 POP JUMP JUMPDEST PUSH1 0x0 DUP3 DUP3 MSTORE PUSH1 0x20 DUP3 ADD SWAP1 POP SWAP3 SWAP2 POP POP JUMP JUMPDEST PUSH1 0x0 JUMPDEST DUP4 DUP2 LT ISZERO PUSH2 0x88F JUMPI DUP1 DUP3 ADD MLOAD DUP2 DUP5 ADD MSTORE PUSH1 0x20 DUP2 ADD SWAP1 POP PUSH2 0x874 JUMP JUMPDEST PUSH1 0x0 DUP5 DUP5 ADD MSTORE POP POP POP POP JUMP JUMPDEST PUSH1 0x0 PUSH1 0x1F NOT PUSH1 0x1F DUP4 ADD AND SWAP1 POP SWAP2 SWAP1 POP JUMP JUMPDEST PUSH1 0x0 PUSH2 0x8B7 DUP3 PUSH2 0x855 JUMP JUMPDEST PUSH2 0x8C1 DUP2 DUP6 PUSH2 0x860 JUMP JUMPDEST SWAP4 POP PUSH2 0x8D1 DUP2 DUP6 PUSH1 0x20 DUP7 ADD PUSH2 0x871 JUMP JUMPDEST PUSH2 0x8DA DUP2 PUSH2 0x89B JUMP JUMPDEST DUP5 ADD SWAP2 POP POP SWAP3 SWAP2 POP POP JUMP JUMPDEST PUSH1 0x0 PUSH1 0x40 DUP3 ADD SWAP1 POP DUP2 DUP2 SUB PUSH1 0x0 DUP4 ADD MSTORE PUSH2 0x8FF DUP2 DUP6 PUSH2 0x8AC JUMP JUMPDEST SWAP1 POP PUSH2 0x90E PUSH1 0x20 DUP4 ADD DUP5 PUSH2 0x82B JUMP JUMPDEST SWAP4 SWAP3 POP POP POP JUMP JUMPDEST PUSH1 0x0 DUP1 REVERT JUMPDEST PUSH1 0x0 DUP1 REVERT JUMPDEST PUSH32 0x4E487B7100000000000000000000000000000000000000000000000000000000 PUSH1 0x0 MSTORE PUSH1 0x41 PUSH1 0x4 MSTORE PUSH1 0x24 PUSH1 0x0 REVERT JUMPDEST PUSH2 0x957 DUP3 PUSH2 0x89B JUMP JUMPDEST DUP2 ADD DUP2 DUP2 LT PUSH8 0xFFFFFFFFFFFFFFFF DUP3 GT OR ISZERO PUSH2 0x976 JUMPI PUSH2 0x975 PUSH2 0x91F JUMP JUMPDEST JUMPDEST DUP1 PUSH1 0x40 MSTORE POP POP POP JUMP JUMPDEST PUSH1 0x0 PUSH2 0x989 PUSH2 0x7B4 JUMP JUMPDEST SWAP1 POP PUSH2 0x995 DUP3 DUP3 PUSH2 0x94E JUMP JUMPDEST SWAP2 SWAP1 POP JUMP JUMPDEST PUSH1 0x0 PUSH8 0xFFFFFFFFFFFFFFFF DUP3 GT ISZERO PUSH2 0x9B5 JUMPI PUSH2 0x9B4 PUSH2 0x91F JUMP JUMPDEST JUMPDEST PUSH2 0x9BE DUP3 PUSH2 0x89B JUMP JUMPDEST SWAP1 POP PUSH1 0x20 DUP2 ADD SWAP1 POP SWAP2 SWAP1 POP JUMP JUMPDEST DUP3 DUP2 DUP4 CALLDATACOPY PUSH1 0x0 DUP4 DUP4 ADD MSTORE POP POP POP JUMP JUMPDEST PUSH1 0x0 PUSH2 0x9ED PUSH2 0x9E8 DUP5 PUSH2 0x99A JUMP JUMPDEST PUSH2 0x97F JUMP JUMPDEST SWAP1 POP DUP3 DUP2 MSTORE PUSH1 0x20 DUP2 ADD DUP5 DUP5 DUP5 ADD GT ISZERO PUSH2 0xA09 JUMPI PUSH2 0xA08 PUSH2 0x91A JUMP JUMPDEST JUMPDEST PUSH2 0xA14 DUP5 DUP3 DUP6 PUSH2 0x9CB JUMP JUMPDEST POP SWAP4 SWAP3 POP POP POP JUMP JUMPDEST PUSH1 0x0 DUP3 PUSH1 0x1F DUP4 ADD SLT PUSH2 0xA31 JUMPI PUSH2 0xA30 PUSH2 0x915 JUMP JUMPDEST JUMPDEST DUP2 CALLDATALOAD PUSH2 0xA41 DUP5 DUP3 PUSH1 0x20 DUP7 ADD PUSH2 0x9DA JUMP JUMPDEST SWAP2 POP POP SWAP3 SWAP2 POP POP JUMP JUMPDEST PUSH1 0x0 PUSH1 0x20 DUP3 DUP5 SUB SLT ISZERO PUSH2 0xA60 JUMPI PUSH2 0xA5F PUSH2 0x7BE JUMP JUMPDEST JUMPDEST PUSH1 0x0 DUP3 ADD CALLDATALOAD PUSH8 0xFFFFFFFFFFFFFFFF DUP2 GT ISZERO PUSH2 0xA7E JUMPI PUSH2 0xA7D PUSH2 0x7C3 JUMP JUMPDEST JUMPDEST PUSH2 0xA8A DUP5 DUP3 DUP6 ADD PUSH2 0xA1C JUMP JUMPDEST SWAP2 POP POP SWAP3 SWAP2 POP POP JUMP JUMPDEST PUSH1 0x0 PUSH20 0xFFFFFFFFFFFFFFFFFFFFFFFFFFFFFFFFFFFFFFFF DUP3 AND SWAP1 POP SWAP2 SWAP1 POP JUMP JUMPDEST PUSH1 0x0 PUSH2 0xABE DUP3 PUSH2 0xA93 JUMP JUMPDEST SWAP1 POP SWAP2 SWAP1 POP JUMP JUMPDEST PUSH2 0xACE DUP2 PUSH2 0xAB3 JUMP JUMPDEST DUP2 EQ PUSH2 0xAD9 JUMPI PUSH1 0x0 DUP1 REVERT JUMPDEST POP JUMP JUMPDEST PUSH1 0x0 DUP2 CALLDATALOAD SWAP1 POP PUSH2 0xAEB DUP2 PUSH2 0xAC5 JUMP JUMPDEST SWAP3 SWAP2 POP POP JUMP JUMPDEST PUSH1 0x0 PUSH1 0x20 DUP3 DUP5 SUB SLT ISZERO PUSH2 0xB07 JUMPI PUSH2 0xB06 PUSH2 0x7BE JUMP JUMPDEST JUMPDEST PUSH1 0x0 PUSH2 0xB15 DUP5 DUP3 DUP6 ADD PUSH2 0xADC JUMP JUMPDEST SWAP2 POP POP SWAP3 SWAP2 POP POP JUMP JUMPDEST PUSH1 0x0 PUSH1 0x20 DUP3 ADD SWAP1 POP DUP2 DUP2 SUB PUSH1 0x0 DUP4 ADD MSTORE PUSH2 0xB38 DUP2 DUP5 PUSH2 0x8AC JUMP JUMPDEST SWAP1 POP SWAP3 SWAP2 POP POP JUMP JUMPDEST PUSH2 0xB49 DUP2 PUSH2 0xAB3 JUMP JUMPDEST DUP3 MSTORE POP POP JUMP JUMPDEST PUSH1 0x0 PUSH1 0x20 DUP3 ADD SWAP1 POP PUSH2 0xB64 PUSH1 0x0 DUP4 ADD DUP5 PUSH2 0xB40 JUMP JUMPDEST SWAP3 SWAP2 POP POP JUMP JUMPDEST PUSH1 0x0 DUP2 ISZERO ISZERO SWAP1 POP SWAP2 SWAP1 POP JUMP JUMPDEST PUSH2 0xB7F DUP2 PUSH2 0xB6A JUMP JUMPDEST DUP3 MSTORE POP POP JUMP JUMPDEST PUSH1 0x0 PUSH1 0x80 DUP3 ADD SWAP1 POP DUP2 DUP2 SUB PUSH1 0x0 DUP4 ADD MSTORE PUSH2 0xB9F DUP2 DUP8 PUSH2 0x8AC JUMP JUMPDEST SWAP1 POP PUSH2 0xBAE PUSH1 0x20 DUP4 ADD DUP7 PUSH2 0xB76 JUMP JUMPDEST PUSH2 0xBBB PUSH1 0x40 DUP4 ADD DUP6 PUSH2 0xB76 JUMP JUMPDEST PUSH2 0xBC8 PUSH1 0x60 DUP4 ADD DUP5 PUSH2 0x82B JUMP JUMPDEST SWAP6 SWAP5 POP POP POP POP POP JUMP JUMPDEST PUSH32 0x4E487B7100000000000000000000000000000000000000000000000000000000 PUSH1 0x0 MSTORE PUSH1 0x32 PUSH1 0x4 MSTORE PUSH1 0x24 PUSH1 0x0 REVERT JUMPDEST PUSH32 0x4E487B7100000000000000000000000000000000000000000000000000000000 PUSH1 0x0 MSTORE PUSH1 0x11 PUSH1 0x4 MSTORE PUSH1 0x24 PUSH1 0x0 REVERT JUMPDEST PUSH1 0x0 PUSH2 0xC3A DUP3 PUSH2 0x7C8 JUMP JUMPDEST SWAP2 POP PUSH32 0xFFFFFFFFFFFFFFFFFFFFFFFFFFFFFFFFFFFFFFFFFFFFFFFFFFFFFFFFFFFFFFFF DUP3 SUB PUSH2 0xC6C JUMPI PUSH2 0xC6B PUSH2 0xC00 JUMP JUMPDEST JUMPDEST PUSH1 0x1 DUP3 ADD SWAP1 POP SWAP2 SWAP1 POP JUMP JUMPDEST PUSH32 0x4E487B7100000000000000000000000000000000000000000000000000000000 PUSH1 0x0 MSTORE PUSH1 0x22 PUSH1 0x4 MSTORE PUSH1 0x24 PUSH1 0x0 REVERT JUMPDEST PUSH1 0x0 PUSH1 0x2 DUP3 DIV SWAP1 POP PUSH1 0x1 DUP3 AND DUP1 PUSH2 0xCBE JUMPI PUSH1 0x7F DUP3 AND SWAP2 POP JUMPDEST PUSH1 0x20 DUP3 LT DUP2 SUB PUSH2 0xCD1 JUMPI PUSH2 0xCD0 PUSH2 0xC77 JUMP JUMPDEST JUMPDEST POP SWAP2 SWAP1 POP JUMP JUMPDEST PUSH1 0x0 DUP2 SWAP1 POP DUP2 PUSH1 0x0 MSTORE PUSH1 0x20 PUSH1 0x0 KECCAK256 SWAP1 POP SWAP2 SWAP1 POP JUMP JUMPDEST PUSH1 0x0 PUSH1 0x20 PUSH1 0x1F DUP4 ADD DIV SWAP1 POP SWAP2 SWAP1 POP JUMP JUMPDEST PUSH1 0x0 DUP3 DUP3 SHL SWAP1 POP SWAP3 SWAP2 POP POP JUMP JUMPDEST PUSH1 0x0 PUSH1 0x8 DUP4 MUL PUSH2 0xD39 PUSH32 0xFFFFFFFFFFFFFFFFFFFFFFFFFFFFFFFFFFFFFFFFFFFFFFFFFFFFFFFFFFFFFFFF DUP3 PUSH2 0xCFC JUMP JUMPDEST PUSH2 0xD43 DUP7 DUP4 PUSH2 0xCFC JUMP JUMPDEST SWAP6 POP DUP1 NOT DUP5 AND SWAP4 POP DUP1 DUP7 AND DUP5 OR SWAP3 POP POP POP SWAP4 SWAP3 POP POP POP JUMP JUMPDEST PUSH1 0x0 DUP2 SWAP1 POP SWAP2 SWAP1 POP JUMP JUMPDEST PUSH1 0x0 PUSH2 0xD80 PUSH2 0xD7B PUSH2 0xD76 DUP5 PUSH2 0x7C8 JUMP JUMPDEST PUSH2 0xD5B JUMP JUMPDEST PUSH2 0x7C8 JUMP JUMPDEST SWAP1 POP SWAP2 SWAP1 POP JUMP JUMPDEST PUSH1 0x0 DUP2 SWAP1 POP SWAP2 SWAP1 POP JUMP JUMPDEST PUSH2 0xD9A DUP4 PUSH2 0xD65 JUMP JUMPDEST PUSH2 0xDAE PUSH2 0xDA6 DUP3 PUSH2 0xD87 JUMP JUMPDEST DUP5 DUP5 SLOAD PUSH2 0xD09 JUMP JUMPDEST DUP3 SSTORE POP POP POP POP JUMP JUMPDEST PUSH1 0x0 SWAP1 JUMP JUMPDEST PUSH2 0xDC3 PUSH2 0xDB6 JUMP JUMPDEST PUSH2 0xDCE DUP2 DUP5 DUP5 PUSH2 0xD91 JUMP JUMPDEST POP POP POP JUMP JUMPDEST JUMPDEST DUP2 DUP2 LT ISZERO PUSH2 0xDF2 JUMPI PUSH2 0xDE7 PUSH1 0x0 DUP3 PUSH2 0xDBB JUMP JUMPDEST PUSH1 0x1 DUP2 ADD SWAP1 POP PUSH2 0xDD4 JUMP JUMPDEST POP POP JUMP JUMPDEST PUSH1 0x1F DUP3 GT ISZERO PUSH2 0xE37 JUMPI PUSH2 0xE08 DUP2 PUSH2 0xCD7 JUMP JUMPDEST PUSH2 0xE11 DUP5 PUSH2 0xCEC JUMP JUMPDEST DUP2 ADD PUSH1 0x20 DUP6 LT ISZERO PUSH2 0xE20 JUMPI DUP2 SWAP1 POP JUMPDEST PUSH2 0xE34 PUSH2 0xE2C DUP6 PUSH2 0xCEC JUMP JUMPDEST DUP4 ADD DUP3 PUSH2 0xDD3 JUMP JUMPDEST POP POP JUMPDEST POP POP POP JUMP JUMPDEST PUSH1 0x0 DUP3 DUP3 SHR SWAP1 POP SWAP3 SWAP2 POP POP JUMP JUMPDEST PUSH1 0x0 PUSH2 0xE5A PUSH1 0x0 NOT DUP5 PUSH1 0x8 MUL PUSH2 0xE3C JUMP JUMPDEST NOT DUP1 DUP4 AND SWAP2 POP POP SWAP3 SWAP2 POP POP JUMP JUMPDEST PUSH1 0x0 PUSH2 0xE73 DUP4 DUP4 PUSH2 0xE49 JUMP JUMPDEST SWAP2 POP DUP3 PUSH1 0x2 MUL DUP3 OR SWAP1 POP SWAP3 SWAP2 POP POP JUMP JUMPDEST PUSH2 0xE8C DUP3 PUSH2 0x855 JUMP JUMPDEST PUSH8 0xFFFFFFFFFFFFFFFF DUP2 GT ISZERO PUSH2 0xEA5 JUMPI PUSH2 0xEA4 PUSH2 0x91F JUMP JUMPDEST JUMPDEST PUSH2 0xEAF DUP3 SLOAD PUSH2 0xCA6 JUMP JUMPDEST PUSH2 0xEBA DUP3 DUP3 DUP6 PUSH2 0xDF6 JUMP JUMPDEST PUSH1 0x0 PUSH1 0x20 SWAP1 POP PUSH1 0x1F DUP4 GT PUSH1 0x1 DUP2 EQ PUSH2 0xEED JUMPI PUSH1 0x0 DUP5 ISZERO PUSH2 0xEDB JUMPI DUP3 DUP8 ADD MLOAD SWAP1 POP JUMPDEST PUSH2 0xEE5 DUP6 DUP3 PUSH2 0xE67 JUMP JUMPDEST DUP7 SSTORE POP PUSH2 0xF4D JUMP JUMPDEST PUSH1 0x1F NOT DUP5 AND PUSH2 0xEFB DUP7 PUSH2 0xCD7 JUMP JUMPDEST PUSH1 0x0 JUMPDEST DUP3 DUP2 LT ISZERO PUSH2 0xF23 JUMPI DUP5 DUP10 ADD MLOAD DUP3 SSTORE PUSH1 0x1 DUP3 ADD SWAP2 POP PUSH1 0x20 DUP6 ADD SWAP5 POP PUSH1 0x20 DUP2 ADD SWAP1 POP PUSH2 0xEFE JUMP JUMPDEST DUP7 DUP4 LT ISZERO PUSH2 0xF40 JUMPI DUP5 DUP10 ADD MLOAD PUSH2 0xF3C PUSH1 0x1F DUP10 AND DUP3 PUSH2 0xE49 JUMP JUMPDEST DUP4 SSTORE POP JUMPDEST PUSH1 0x1 PUSH1 0x2 DUP9 MUL ADD DUP9 SSTORE POP POP POP JUMPDEST POP POP POP POP POP POP JUMP INVALID LOG2 PUSH5 0x6970667358 0x22 SLT KECCAK256 KECCAK256 SIGNEXTEND 0xD1 PUSH28 0x768BC300CC7AA334C97D67170F09241C8215E9A8F3FE14357BD0A74B PUSH5 0x736F6C6343 STOP ADDMOD SLT STOP CALLER "
				},
				"gasEstimates": {
					"creation": {
						"codeDepositCost": "795800",
						"executionCost": "831",
						"totalCost": "796631"
					},
					"external": {
						"AuthorizeVoter(address)": "27074",
						"addCandidate(string)": "infinite",
						"candidates(uint256)": "infinite",
						"electionName()": "infinite",
						"getNumOfCandidates()": "2511",
						"smartContractOwner()": "2533",
						"startElection(string)": "infinite",
						"totalVotes()": "2452",
						"vote(uint256)": "infinite",
						"voters(address)": "infinite"
					}
				},
				"methodIdentifiers": {
					"AuthorizeVoter(address)": "4b2c5111",
					"addCandidate(string)": "462e91ec",
					"candidates(uint256)": "3477ee2e",
					"electionName()": "85e8e7a7",
					"getNumOfCandidates()": "e8685ba1",
					"smartContractOwner()": "96ffa499",
					"startElection(string)": "f544bed8",
					"totalVotes()": "0d15fd77",
					"vote(uint256)": "0121b93f",
					"voters(address)": "a3ec138d"
				}
			},
			"storageLayout": {
				"storage": [
					{
						"astId": 17,
						"contract": "contracts/Election.sol:Election",
						"label": "smartContractOwner",
						"offset": 0,
						"slot": "0",
						"type": "t_address"
					},
					{
						"astId": 30,
						"contract": "contracts/Election.sol:Election",
						"label": "electionName",
						"offset": 0,
						"slot": "1",
						"type": "t_string_storage"
					},
					{
						"astId": 32,
						"contract": "contracts/Election.sol:Election",
						"label": "totalVotes",
						"offset": 0,
						"slot": "2",
						"type": "t_uint256"
					},
					{
						"astId": 37,
						"contract": "contracts/Election.sol:Election",
						"label": "voters",
						"offset": 0,
						"slot": "3",
						"type": "t_mapping(t_address,t_struct(Voter)15_storage)"
					},
					{
						"astId": 41,
						"contract": "contracts/Election.sol:Election",
						"label": "candidates",
						"offset": 0,
						"slot": "4",
						"type": "t_array(t_struct(Candidate)6_storage)dyn_storage"
					}
				],
				"types": {
					"t_address": {
						"encoding": "inplace",
						"label": "address",
						"numberOfBytes": "20"
					},
					"t_array(t_struct(Candidate)6_storage)dyn_storage": {
						"base": "t_struct(Candidate)6_storage",
						"encoding": "dynamic_array",
						"label": "struct Election.Candidate[]",
						"numberOfBytes": "32"
					},
					"t_bool": {
						"encoding": "inplace",
						"label": "bool",
						"numberOfBytes": "1"
					},
					"t_mapping(t_address,t_struct(Voter)15_storage)": {
						"encoding": "mapping",
						"key": "t_address",
						"label": "mapping(address => struct Election.Voter)",
						"numberOfBytes": "32",
						"value": "t_struct(Voter)15_storage"
					},
					"t_string_storage": {
						"encoding": "bytes",
						"label": "string",
						"numberOfBytes": "32"
					},
					"t_struct(Candidate)6_storage": {
						"encoding": "inplace",
						"label": "struct Election.Candidate",
						"members": [
							{
								"astId": 3,
								"contract": "contracts/Election.sol:Election",
								"label": "name",
								"offset": 0,
								"slot": "0",
								"type": "t_string_storage"
							},
							{
								"astId": 5,
								"contract": "contracts/Election.sol:Election",
								"label": "numOfVotes",
								"offset": 0,
								"slot": "1",
								"type": "t_uint256"
							}
						],
						"numberOfBytes": "64"
					},
					"t_struct(Voter)15_storage": {
						"encoding": "inplace",
						"label": "struct Election.Voter",
						"members": [
							{
								"astId": 8,
								"contract": "contracts/Election.sol:Election",
								"label": "name",
								"offset": 0,
								"slot": "0",
								"type": "t_string_storage"
							},
							{
								"astId": 10,
								"contract": "contracts/Election.sol:Election",
								"label": "isAuthorized",
								"offset": 0,
								"slot": "1",
								"type": "t_bool"
							},
							{
								"astId": 12,
								"contract": "contracts/Election.sol:Election",
								"label": "hasVoted",
								"offset": 1,
								"slot": "1",
								"type": "t_bool"
							},
							{
								"astId": 14,
								"contract": "contracts/Election.sol:Election",
								"label": "c_id",
								"offset": 0,
								"slot": "2",
								"type": "t_uint256"
							}
						],
						"numberOfBytes": "96"
					},
					"t_uint256": {
						"encoding": "inplace",
						"label": "uint256",
						"numberOfBytes": "32"
					}
				}
			},
			"userdoc": {
				"kind": "user",
				"methods": {},
				"version": 1
			}
		}
	}
}